:020000040800F2
:100000000804002009010008651F0008DF1500082A
:10001000611F0008150500083D21000800000000D0
:100020000000000000000000000000005120000857
:100030001905000800000000A11F00085320000857
:100040002301000823010008230100082301000800
:1000500023010008230100082301000823010008F0
:1000600023010008230100082301000823010008E0
:1000700023010008230100082301000823010008D0
:1000800023010008230100082301000823010008C0
:1000900023010008230100082301000823010008B0
:1000A00000000000230100082301000823010008CC
:1000B0002301000823010008230100082301000890
:1000C0002301000823010008230100082301000880
:1000D0002301000823010008230100082301000870
:1000E0002301000823010008230100082301000860
:1000F00023010008DFF80CD000F0EAF900480047BF
:100100006D21000808040020064880470648004783
:10011000FEE7FEE7FEE7FEE7FEE7FEE7FEE7FEE7B7
:10012000FEE7FEE7D9200008F500000880EA01029A
:1001300010B502F00043400022D04A001FD0010E4B
:1001400001EB1261C0F35600C2F3560240F4000006
:1001500042F40002A0FB022000047F39140400D006
:10016000401C50EA124001D44000491EC2B20C06A5
:1001700004EBD010401C4008802A02D003E000208D
:1001800010BD20F00100002900DA0020184310BD46
:100190002DE9FE4F804681EA0300C00F0C46009017
:1001A00021F0004123F00045B8EB0200A94105D23F
:1001B0004046214690461C460B46024623F000402E
:1001C000104347D0270DC7F30A00C3F30A5102902A
:1001D000401A019040286BDAC3F3130040F4801BEF
:1001E0000098924620B10023D2EB030A63EB0B0B7D
:1001F00001985946C0F14002504600F0B3F8064657
:100200000D4650465946019A00F0BBF810EB080025
:100210006141002487EA115284EAE7731A4340D00F
:10022000009A62B3019A012A4FEA075215DC001BBB
:1002300061EB02014FF0004202EA0752CDE90042B1
:10024000001C41F5801132462B4600F0F2F803B055
:10025000BDE8F08F40462146F9E7001B61EB020143
:10026000001C41F5801300185B412018A2F500170F
:1002700047EB030140EAD570B6196D4111E06D08F6
:100280004FEA360645EAC0754FEA0752001B61EB9C
:100290000201001C41F5801149084FEA30000019A5
:1002A000514132462B4603B0BDE8F04F00F0B2B8E2
:1002B0000098012240000023D0EB020263EBE073C0
:1002C000009821464FEAE074B8EB000061EB0401AE
:1002D000E9E783F000435BE781F0004158E720F055
:1002E0000040C10DC0F3160040F400007F2901DA80
:1002F00000207047962903DCC1F19601C840704781
:1003000096398840704700F0004230F000400AD033
:10031000C10D01F56071C0F3160042EA0151C20837
:1003200040071143704700200146704701F0004329
:1003300030B421F0004150EA010206D00A0DA2F5C6
:100340006072C1F31301002A02DC30BC0020704748
:10035000440F44EAC104C100E01830BC00EBC250B5
:1003600000F021B8202A04DB203A00FA02F1002034
:1003700070479140C2F1200320FA03F319439040E3
:100380007047202A06DBCB17203A41FA02F043EAF5
:10039000E07306E041FA02F3D040C2F1200291403E
:1003A0000843194670470029A8BF7047401C490000
:1003B00008BF20F00100704710B4B0FA80FC00FACA
:1003C0000CF050EA010404BF10BC704749B1CCF1F5
:1003D000200421FA04F411FA0CF118BF0121214381
:1003E0000843A3EB0C01CB1D4FEA00614FEA10203C
:1003F00042BF002010BC704700EBC35010440029DE
:10040000A4BF10BC7047401C490008BF20F0010089
:1004100010BC704710B5141E73F1000408DA401CBC
:1004200041F1000192185B411A4301D120F0010013
:1004300010BD2DE9F04D92469B4611B1B1FA81F203
:1004400002E0B0FA80F220329046FFF78BFF0446BC
:100450000F4640EA0A0041EA0B0153465A46084358
:1004600013D0114653EA010019D0C8F1400250469A
:1004700000F040F805460E46504659464246FFF702
:1004800071FF084305D0012004E020463946BDE84D
:10049000F08D0020054346EAE0762C4337430A9866
:1004A0006305E40AA0EB08000022FD0A44EA475471
:1004B0000A3002D500200146E9E70105101969411B
:1004C000DDE9084500196941BDE8F04DA2E70000EB
:1004D000064C074D06E0E06840F0010394E8070091
:1004E00098471034AC42F6D3FFF708FE24520008B8
:1004F00044520008202A04DB203A21FA02F00021AD
:10050000704721FA02F3D040C2F120029140084323
:100510001946704700BFFEE7704731B5002400F070
:10052000F7F8044600BF00F0F3F8001B009988427A
:10053000F9D338BD78B50346002200240020CAE074
:10054000012696400D6805EA0604002C71D04D681E
:10055000022D02D04D68122D13D1D60803F12005CB
:1005600055F826005507EE0E0F25B540A84356074F
:10057000F60E0D69B5402843D60803F1200545F86D
:100580002600186856000325B540A8430D7905F0EC
:1005900003055600B540284318604D68012D08D06A
:1005A0004D68022D05D04D68112D02D04D68122DD9
:1005B00013D1986856000325B540A8435600CD686E
:1005C000B54028439860586801259540A8430D79A7
:1005D000C5F30015954028435860D8685600032598
:1005E000B540A84356008D68B5402843D8604D6893
:1005F00005F08055B5F1805F6CD100BF394D2D6895
:1006000045F00105374E356035462D6805F001058A
:10061000009500BF00BF344D960855F82600950799
:100620002E0F0F25B540A843304DAB4202D1002517
:1006300015E04FE02E4DAB4201D101250FE02D4DCD
:10064000AB4201D102250AE02B4DAB4201D103257B
:1006500005E02A4DAB4201D1042500E005259607AF
:10066000360FB5402843204D960845F82600244D06
:100670002868A0434D6805F48035B5F5803F00D16A
:1006800020431F4D28602D1D2868A0434D6805F4A8
:100690000035B5F5003F00D12043194D2D1D2860D0
:1006A0002D1D2868A0434D6805F48015B5F5801F01
:1006B00000D12043124D083528602D1D2868A04325
:1006C0004D6805F40015B5F5001F00D120430C4D11
:1006D0000C352860521C0D68D540002D7FF430AFDA
:1006E00078BD0000203802400800014000000240B0
:1006F0000004024000080240000C024000100240CA
:10070000000401400AB1816101E00B04836170477C
:10071000014800687047000004000020024800689B
:10072000401C0149086070470400002010B50320F8
:1007300000F05CF8002000F005F800F017F8002049
:1007400010BD000070B50446074800684FF47A7188
:10075000B0FBF1F5284600F024FF00222146501E90
:1007600000F005F8002070BD0000002070472DE962
:10077000F05F80460D461646002701F0F5FB074660
:1007800039462A46334601F00700C0F1070ABAF19C
:10079000040F02D94FF0040A01E0C0F1070AD14664
:1007A00000F1040ABAF1070F02D24FF0000A01E08B
:1007B000A0F1030AD4464FF0010A0AFA09FAAAF195
:1007C000010A0AEA020A0AFA0CFA4FF0010B0BFAC4
:1007D0000CFBABF1010B0BEA030B4AEA0B042146BD
:1007E000404601F0C9FBBDE8F09F000000BF00F0EB
:1007F0000702064B19684FF6FF031940044B0B43E1
:1008000043EA0221014B196000BF70470CED00E084
:100810000000FA0570B504460D460026B34800688E
:1008200000F00100A84218D200BF012D05D1AF4849
:10083000006840F00400AD490860AC48006820F052
:1008400001002843A949086000BF0846006800F07D
:100850000100A84201D0012070BD207800F0020004
:10086000022807D1A248006820F0F000A1680843E0
:100870009F490860207800F0010000287BD0606864
:10088000022821D12020010391FAA1F1B1FA81F1CE
:1008900008430121B1EB601F03D195480838006877
:1008A00002E093482C30006820210A0392FAA2F259
:1008B000B2FA82F2114301F01F0201219140084077
:1008C00000286CD10120C7E76068032820D12020D0
:1008D000010591FAA1F1B1FA81F108430121B1EBCF
:1008E000601F03D182480838006802E080482C303D
:1008F000006820210A0592FAA2F2B2FA82F21143AC
:1009000001F01F02012191400840A8BB0120A3E78C
:100910006068012820D12020022191FAA1F1B1FACA
:1009200081F108430121B1EB601F03D17048083801
:10093000006802E06E482C3000682021022292FA02
:10094000A2F2B2FA82F2114301F01F02012191409A
:10095000084088B901207FE72020010191FAA1F128
:10096000B1FA81F108430121B1EB601F05D1604864
:100970000838006804E069E011E05D482C30006848
:1009800020210A0192FAA2F2B2FA82F2114301F096
:100990001F0201219140084008B901205CE754483A
:1009A000006820F003006168084351490860FFF7C0
:1009B000AFFE06466068022810D108E0FFF7A8FEE7
:1009C000801B41F28831884201D9032044E748481E
:1009D000006800F00C000828F0D137E060680328B8
:1009E00010D108E0FFF794FE801B41F28831884265
:1009F00001D9032030E73E48006800F00C000C28C5
:100A0000F0D123E06068012810D108E0FFF780FEF4
:100A1000801B41F28831884201D903201CE7344809
:100A2000006800F00C000428F0D10FE008E0FFF7A8
:100A30006FFE801B41F28831884201D903200BE709
:100A40002B48006800F00C000028F0D1274800680F
:100A500000F00100A84218D900BF012D05D123489C
:100A6000006840F00400214908602048006820F038
:100A7000010028431D49086000BF0846006800F0D7
:100A80000100A84201D00120E6E6207800F0040031
:100A9000042807D11648006820F4E060E1680843A4
:100AA00013490860207800F00800082808D1104891
:100AB000006820F46050216940EAC1000C490860D8
:100AC00000F022F80A49096801F0F001F02292FAD8
:100AD000A2F2B2FA82F2D140064A515CC8400649FD
:100AE00008600020FFF72EFE0020B5E6003C024023
:100AF00008380240B32F00080000002001480068B9
:100B00007047000000000020F0B500210023002401
:100B1000002200250020254E316801F00C067EB32E
:100B2000042E04D0082E04D00C2E2AD103E0204835
:100B30003AE0204838E001F470164FF4701797FA45
:100B4000A7F7B7FA87F7FE401B4FBB5D01F44006DD
:100B50004FF4400797FAA7F7B7FA87F7FE40741CDF
:100B6000124E366806F4803626B1124E5E43B6FB4E
:100B7000F4F203E00E4E5E43B6FBF4F2104613E0CF
:100B800000E000BF094E361F366806F460464FF499
:100B9000604797FAA7F7B7FA87F726FA07F56E1CAA
:100BA0000127B740F80300BF00BFF0BD083802407E
:100BB0000024F40000366E01AA2F0008F8B50446A0
:100BC0000025207800F00100002879D0F74800685F
:100BD00000F00C0008280CD0F448006800F00C006D
:100BE0000C282BD1F148006800F48030B0F5803F2C
:100BF00024D12020010391FAA1F1B1FA81F1084337
:100C00000121B1EB601F03D1E8480838006802E019
:100C1000E6482C30006820210A0392FAA2F2B2FAC8
:100C200082F2114301F01F02012191400840002887
:100C3000CBD06068002843D10120F8BD00BF6068B8
:100C4000012808D1D9480838006840F48030D749D5
:100C5000083908602DE0606868B9D4480838006831
:100C600020F48030D149083908600846006820F433
:100C7000802008601DE0606805280DD1CB48083849
:100C8000006840F48020C9490839086008460068B7
:100C900040F4803008600CE0C4480838006820F454
:100CA0008030C249083908600846006820F4802076
:100CB000086000BF606860B3FFF72AFD054607E0E3
:100CC00052E0FFF725FD401B642801D90320B4E75B
:100CD0002020010391FAA1F1B1FA81F10843012129
:100CE000B1EB601F03D1B1480838006802E0AF489B
:100CF0002C30006820210A0392FAA2F2B2FA82F2A2
:100D0000114301F01F020121914008400028D8D072
:100D10002AE0FFF7FDFC054606E0FFF7F9FC401B63
:100D2000642801D9032088E72020010391FAA1F16A
:100D3000B1FA81F108430121B1EB601F03D19B4857
:100D40000838006802E099482C30006820210A0326
:100D500092FAA2F2B2FA82F2114301F01F020121CB
:100D6000914008400028D8D1207800F002000228E5
:100D700045D18E48006800F00C0004280AD08B484A
:100D8000006800F00C000C283BD18848006800F493
:100D90008030A8BB2020022191FAA1F1B1FA81F1A3
:100DA00008430121B1EB601F03D180480838006877
:100DB00002E07E482C3000682021022292FAA2F242
:100DC000B2FA82F2114301F01F0201219140084062
:100DD00020B1E068012801D001202EE77348001FF0
:100DE000006820F4F8504FF4F85292FAA2F2B2FAE6
:100DF00082F22169914008436C49091F08607DE037
:100E0000FFE7E068F0B3012090FAA0F1B1FA81F1B8
:100E1000674A42F82100FFF77BFC054606E0FFF732
:100E200077FC401B022801D9032006E7202002217D
:100E300091FAA1F1B1FA81F108430121B1EB601FF0
:100E400003D15A480838006802E058482C3000683E
:100E50002021022292FAA2F2B2FA82F2114301F0A8
:100E60001F020121914008400028D8D04F48001FA0
:100E7000006820F4F8504FF4F85292FAA2F2B2FA55
:100E800082F200E006E02169914008434749091FCA
:100E9000086033E00020012191FAA1F1B1FA81F15B
:100EA000434A42F82100FFF733FC054606E0FFF70E
:100EB0002FFC401B022801D90320BEE6202002217E
:100EC00091FAA1F1B1FA81F108430121B1EB601F60
:100ED00003D136480838006802E034482C300068F6
:100EE0002021022292FAA2F2B2FA82F2114301F018
:100EF0001F020121914008400028D8D1207800F03D
:100F00001000102873D12948006800F00C00002858
:100F10006ED12020010191FAA1F1B1FA81F10843CB
:100F20000121B1EB601F03D120480838006802E0BE
:100F30001E482C30006820210A0192FAA2F2B2FA6F
:100F400082F2114301F01F0201219140084018B1C3
:100F5000A06908B9012070E61449091F206A0968D0
:100F600001F46041884225D9206A01F01BF808B1DC
:100F7000012062E60D48001F006820F46040216AED
:100F800008430A49091F08600846006820F07F40AE
:100F90004FF07F4292FAA2F2B2FA82F2E1699140F6
:100FA00008430249091F086023E000000838024096
:100FB00000004742FC48006820F46040216A084372
:100FC000F94908600846006820F07F404FF07F42F2
:100FD00092FAA2F2B2FA82F2E16991400843F24930
:100FE0000860206A00F0DEFF18B1012025E6A5E0C8
:100FF0001FE04FF4604191FAA1F1B1FA81F1206A4A
:10100000C840401C01218140C803E749091D096807
:1010100001F0F001F02292FAA2F2B2FA82F2D1408B
:10102000E24A515CC840E24908600020FFF78AFBB1
:1010300084E0A069F0B30120010291FAA1F1B1FAB4
:1010400081F1DC4A42F82100FFF762FB054606E029
:10105000FFF75EFB401B022801D90320EDE52020AD
:10106000010191FAA1F1B1FA81F108430121B1EB3B
:10107000601F03D1CC48001F006802E0CA4830302E
:10108000006820210A0192FAA2F2B2FA82F2114318
:1010900001F01F020121914008400028D8D0C24829
:1010A000006820F46040216A0843BF490860084690
:1010B000006800E00DE020F07F404FF07F4292FAA0
:1010C000A2F2B2FA82F2E16991400843B64908609F
:1010D00034E000204FF4807191FAA1F1B1FA81F16E
:1010E000B44A42F82100FFF713FB054606E0FFF77C
:1010F0000FFB401B022801D903209EE5202001019F
:1011000091FAA1F1B1FA81F108430121B1EB601F1D
:1011100003D1A548001F006802E0A34830300068F2
:1011200020210A0192FAA2F2B2FA82F2114301F0EE
:101130001F020121914008400028D8D1207800F0FA
:10114000080008286ED16069A8B3012090FAA0F1C8
:10115000B1FA81F1974A02EB8101C1F88006FFF7ED
:10116000D7FA054606E0FFF7D3FA401B022801D95B
:10117000032062E54020022191FAA1F1B1FA81F148
:1011800008430121B1EB601F03D18748001F0068AD
:1011900002E08548303000684021022292FAA2F233
:1011A000B2FA82F2114301F01F020121914008407E
:1011B0000028D8D036E0FFE70021012090FAA0F007
:1011C000B0FA80F07B4A02EB8000C0F88016FFF78F
:1011D0009FFA054606E0FFF79BFA401B022801D95B
:1011E00003202AE54020022191FAA1F1B1FA81F110
:1011F00008430121B1EB601F03D16B48001F006859
:1012000002E06948303000684021022292FAA2F2DE
:10121000B2FA82F2114301F01F020121914008400D
:101220000028D8D1207800F00400042875D10026C9
:101230005D482030006800F0805080B900BF5A48F7
:101240002030006840F0805057492031086008463F
:10125000006800F08050009000BF00BF0126564893
:10126000006800F48070B0B95348006840F48070A2
:1012700051490860FFF74CFA054606E0FFF748FAC7
:10128000401B642801D90320D7E44B48006800F4D0
:1012900080700028F2D000BFA068012808D1424821
:1012A0003030006840F480703F49303108602DE0F4
:1012B000A06868B93C483030006820F480703A4932
:1012C000303108600846006820F4806008601DE046
:1012D000A06805280DD134483030006840F48060A3
:1012E0003149303108600846006840F48070086079
:1012F0000CE02D483030006820F480702A493031ED
:1013000008600846006820F48060086000BFA0689C
:1013100070B3FFF7FDF9054609E06AE0FFF7F8F959
:10132000401B41F28831884201D9032085E44020E6
:10133000C10091FAA1F1B1FA81F108430121B1EBA9
:10134000601F03D11848001F006802E016483030C3
:1013500000684021CA0092FAA2F2B2FA82F2114366
:1013600001F01F020121914008400028D6D035E04D
:10137000FFF7CEF9054608E0FFF7CAF9401B41F236
:101380008831884201D9032057E44020C10091FAF6
:10139000A1F1B1FA81F108430121B1EB601F0DD138
:1013A0000148001F00680BE004380240B32F00081A
:1013B0000000002000004742007000406C480068B8
:1013C0004021CA0092FAA2F2B2FA82F2114301F06D
:1013D0001F020121914008400028CDD1012E07D1E4
:1013E00063481038006820F0805061491039086067
:1013F00000BF606AF0B35E482C38006800F00C0053
:101400000C287AD0606A022879D100204FF08071D0
:1014100091FAA1F1B1FA81F1564A42F82100FFF7A1
:1014200077F9054606E0FFF773F9401B022801D95A
:10143000032002E42020010591FAA1F1B1FA81F123
:1014400008430121B1EB601F03D1494834380068DB
:1014500001E04748006820210A0592FAA2F2B2FA98
:1014600082F2114301F01F0201219140084000283F
:10147000D9D100E07AE0D4E90A010843216B08439E
:101480003B492C39096821F47D01084338492C393E
:1014900008600120010691FAA1F1B1FA81F1354A03
:1014A00042F82100FFF734F9054606E0FFF730F96E
:1014B000401B022801D9032009E42020010591FAEC
:1014C000A1F1B1FA81F108430121B1EB601F03D111
:1014D00027483438006801E02548006820210A05C3
:1014E00092FAA2F2B2FA82F2114301F01F02012134
:1014F000914008400028D9D038E035E0FFE70021CE
:101500004FF0807090FAA0F0B0FA80F0194A42F8DB
:101510002010FFF7FDF8054606E0FFF7F9F8401B3D
:10152000022801D9032058E42020010591FAA1F1F5
:10153000B1FA81F108430121B1EB601F03D10C48DE
:101540003438006801E00A48006820210A0592FA50
:10155000A2F2B2FA82F2114301F01F02012191407E
:1015600008400028D9D101E0012036E4002034E40D
:101570003438024000004742042808D14FF0E021EF
:10158000096941F004014FF0E022116107E04FF0DA
:10159000E021096921F004014FF0E0221161704758
:1015A000704770B504462546681EB0F1807F01D3B0
:1015B00001200FE0681E4FF0E02148610F214FF03D
:1015C000FF3000F0D9FC00204FF0E02188610720B7
:1015D0000861002070BD10B5FFF7E2FF10BD00BF2D
:1015E000FEE72DE9F04107460C4615461E462A2027
:1015F00000F04CFC384600F039FC284600F036FC80
:101600002B2000F043FC204600F030FC304600F078
:101610002DFC2C2000F03AFCBDE8F08170B50446AA
:101620000D4616462B46224629462046FFF7D9FF8F
:10163000304600F01BFC70BD2DE9F04706460F4612
:1016400014461D46DDF820A06B1E621E394630464A
:10165000FFF7C7FFB8460AE0B14604E0504600F085
:1016600005FC09F10109A145F8D308F10108A845D5
:10167000F2D3BDE8F087000000B587B000BF0F4887
:10168000006840F001000D4908600846006800F05D
:101690000100019000BF00BF3F2002900120039095
:1016A00004900320059002A90548FEF743FF01229C
:1016B0003F210348FFF726F807B000BD1C38024061
:1016C0000000024010B5FFF7D7FF00220421644854
:1016D000FFF718F8642000F042FD01220421604861
:1016E000FFF710F8642000F03AFD012220215C4849
:1016F000FFF708F8642000F032FD112000F0C6FB6F
:10170000782000F02CFD362000F0C0FB002000F017
:10171000B7FB3A2000F0BAFB052000F0B1FBB22085
:1017200000F0B4FB0C2000F0ABFB0C2000F0A8FB99
:10173000002000F0A5FB332000F0A2FB332000F0D6
:101740009FFBB72000F0A2FB352000F099FBBB20E7
:1017500000F09CFB322000F093FBC22000F096FBCF
:10176000012000F08DFBC32000F090FB152000F05D
:1017700087FBC42000F08AFB202000F081FBC620FC
:1017800000F084FB0F2000F07BFBD02000F07EFBFC
:10179000A42000F075FBA12000F072FBE02000F017
:1017A00075FBD02000F06CFB082000F069FB0E20D8
:1017B00000F066FB092000F063FB092000F060FBED
:1017C000052000F05DFB312000F05AFB332000F0D3
:1017D00057FB482000F054FB172000F051FB142069
:1017E00000F04EFB152000F04BFB312000F048FBD1
:1017F000342000F045FBE12000F048FBD02000F051
:101800003FFB082000F03CFB0E2000F039FB0920D4
:1018100000F036FB092000F033FB152000F030FB10
:10182000312000F02DFB332000F02AFB482000F08F
:1018300027FB172000F024FB142000F021FB1520CB
:1018400000F01EFB312000F01BFB342000F018FBE1
:10185000212000F01BFB292000F018FB10BD000028
:10186000000002402DE9FF4F83B005468A46174627
:10187000119CAB46204604EBD071C1F347063046BD
:10188000F11706EB5171C91061430191A7F12000D6
:10189000C7B20AEB0400431EA819421E514628464F
:1018A000FFF79FFE4FF0000945E0102C06D12448B9
:1018B00000EB071010F8090002900BE0202C06D175
:1018C000204800EB871010F80900029002E007B0F2
:1018D000BDE8F08F4FF0000827E0129868B90120AA
:1018E00000FA08F00299084018B1069800F0BEFA14
:1018F00017E0109800F0BAFA13E0012000FA08F09F
:101900000299084020B151462846069AFFF786FE04
:101910006D1CA5EB0B00B04203D15D460AF1010A34
:1019200006E008F1010000F0FF08B8F1080FD4DB71
:1019300000BF09F1010901988145B6D300BFC6E790
:10194000CB2F0008BB3500082DE9FE4F80468946A5
:1019500015469A46DDE90D470C9E27E0102C09D16B
:1019600053462A4649464046CDE90147009600F0D5
:1019700023F819E0182C09D153462A464946404617
:10198000CDE90147009600F091F80DE0202C09D137
:1019900053462A4649464046CDE90147009600F0A5
:1019A00007F901E0BDE8FE8FAD1CA04428780028AF
:1019B000D4D100BFF6E700002DE9FE4F0646894668
:1019C00092469B460D9C00962046E11704EB517110
:1019D000C910614301910520029000255FE005EBED
:1019E0000510314911F810009AF80010884254D1BE
:1019F00005EB05102C4901EB400040789AF80110E6
:101A000088424AD109EB0400431E3019421E494660
:101A10003046FFF7E6FD00273CE04FF0000833E0DA
:101A20000E9898B905EB05101F4901EB4000801C8A
:101A3000C05D012101FA08F1084018B1584600F0D4
:101A400015FA1DE00C9800F011FA19E005EB0510ED
:101A5000154901EB4000801CC05D012101FA08F12D
:101A6000084020B15A4649463046FFF7D7FD761C5C
:101A70000098301AA04203D1009E09F1010906E046
:101A800008F1010000F0FF08B8F1080FC8DB00BF43
:101A9000781CC7B201988742BFD300BF6D1C029863
:101AA00085429CD3BDE8FE8F7B4D00082DE9FE4F9B
:101AB0000646894692469B460D9C00962046E117B5
:101AC00004EB5171C910614301910520029000257A
:101AD00067E005EB850000EB4510344911F8100074
:101AE0009AF8001088425AD105EB850000EB4510AA
:101AF0002E4901EB400040789AF8011088424ED1FF
:101B000009EB0400431E3019421E49463046FFF7D8
:101B100068FD002740E04FF0000837E00E98A8B9B4
:101B200005EB850000EB4510204901EB4000801CCF
:101B3000C05D012101FA08F1084018B1584600F0D3
:101B400095F91FE00C9800F091F91BE005EB85007A
:101B500000EB4510154901EB4000801CC05D0121E0
:101B600001FA08F1084020B15A4649463046FFF7CD
:101B700055FD761C0098301AA04203D1009E09F151
:101B8000010906E008F1010000F0FF08B8F1080FB4
:101B9000C4DB00BF781CC7B201988742BBD300BF2B
:101BA0006D1C0298854294D3BDE8FE8F254E000837
:101BB0002DE9FE4F0646894692469B460D9C0096AF
:101BC0002046E11704EB5171C910614301910520D2
:101BD000029000255FE005EB8510314911F81000F7
:101BE0009AF80010884254D105EB85102C4901EB7E
:101BF000400040789AF8011088424AD109EB04006D
:101C0000431E3019421E49463046FFF7EAFC0027C2
:101C10003CE04FF0000833E00E9898B905EB8510D2
:101C20001F4901EB4000801CC05D012101FA08F151
:101C3000084018B1584600F019F91DE00C9800F062
:101C400015F919E005EB8510154901EB4000801CE2
:101C5000C05D012101FA08F1084020B15A46494609
:101C60003046FFF7DBFC761C0098301AA04203D107
:101C7000009E09F1010906E008F1010000F0FF08EB
:101C8000B8F1080FC8DB00BF781CC7B201988742C3
:101C9000BFD300BF6D1C029885429CD3BDE8FE8F68
:101CA000974F00082DE9FF4F85B0074690461C4628
:101CB000DDE91396304606EBD071C1F3470B1F499F
:101CC0004046FEF733FA0390FEF709FB0490002527
:101CD0002FE0601B401EC1B20A2000F01BFB0499DC
:101CE000B1FBF0F00A21B0FBF1F201FB120AA01ED9
:101CF000A8420FD10020A11ECDE90096029001FB61
:101D00000B702E22129B0699FFF7ACFD681CC5B222
:101D1000601CC4B200200AF13001CAB2CDE90096BD
:101D2000029005FB0B70129B0699FFF79BFD681C48
:101D3000C5B2A542CDDB09B0BDE8F08F0000C842B6
:101D40002DE9FF4F85B0074691461D46DDE913A6F4
:101D500000200490304606EBD071C1F3470B0024FD
:101D600032E0281B401EC1B20A2000F0D3FAB9FBB2
:101D7000F0F00A21B0FBF1F201FB1208049898B9C7
:101D8000681EA04210DDB8F1000F0BD10020CDE994
:101D900000A6029004FB0B702022129B0699FFF70D
:101DA00061FD0FE001200490002008F13001CAB26B
:101DB000CDE900A6029004FB0B70129B0699FFF779
:101DC00051FD00BF601CC4B2AC42CADB09B0BDE823
:101DD000F08F2DE9F05F0746884615461E46DDF870
:101DE0002890002408EB0600431E7819421E414645
:101DF0003846FFF7F6FBA24614E04FF0000B0DE06B
:101E000019F8140000F03CF8012101EB440119F825
:101E1000010000F035F8641C0BF1010BB345EFD362
:101E20000AF1010AAA45E8D3BDE8F09F2DE9FE4F6B
:101E300006460F4614469846DDE90D5ADDF8309007
:101E40000FE0CDE9015ACDF800902278434639469B
:101E50003046FFF707FD284605EBD07106EB61061B
:101E6000641C20780028ECD1BDE8FE8F10B5044634
:101E7000C4F3072000F01CF8E0B200F019F810BD20
:101E800010B50446204600F013F810BD10B5044606
:101E9000002208210548FEF735FC204600F008F82E
:101EA000012208210148FEF72DFC10BD0000024070
:101EB00070B50446002210211448FEF723FC0025CB
:101EC0001BE0002201211148FEF71CFC04F08000F9
:101ED00028B1012202210D48FEF714FC04E0002283
:101EE00002210A48FEF70EFC012211460748FEF7C0
:101EF00009FC6006040E681CC5B2082DE1DB012256
:101F000010210248FEF7FEFB70BD000000000240F9
:101F100000B587B000BF1048006840F001000E49CE
:101F200008600846006800F00100019000BF00BF93
:101F30004FF400400290012003900490032005908C
:101F400002A90648FEF7F6FA0122D1030348FEF77C
:101F5000D9FB07B000BD00001C3802400000024061
:101F600000BFFEE77047000002480068C0F302208F
:101F7000704700000CED00E010B5002807DA0A07F2
:101F8000140E054A00F00F031B1FD45403E00A0788
:101F9000130E024A135410BD18ED00E000E400E0F7
:101FA0007047000018B5024600230021254800684C
:101FB00000F0F00050BB23481C30006800F0805057
:101FC00020B12148006800F4C05318E000BF1D484C
:101FD0001C30006840F080501A4C1C3420602046B1
:101FE000006800F08050009000BF00BF16480068F5
:101FF00000F4C0532046006820F080502060B3F504
:10200000C05F03D1B2F5404F00D1012100BF0129CB
:1020100005D10E48006840F004000C4C20600B48CD
:10202000006820F001000843084C206000BF2046F3
:10203000006800F00100884201D0012018BD002096
:10204000FCE700000838024000700040003C0240FD
:10205000704710B5FEF762FBFFF7BDFA10BD000038
:1020600010B592B01B48006820F4C05040F40060E6
:10207000184908600220059001200890102009905E
:1020800002200E9000210F9110914105119105A899
:10209000FEF794FD0F200090032001900020029095
:1020A0000390049001216846FEF7B4FBFEF726FD7D
:1020B0004FF47A71B0FBF1F42046FFF772FA042076
:1020C000FFF75AFA00221146501EFEF750FB12B0DD
:1020D00010BD0000007000401448006840F480709B
:1020E00012490860114808300068114908400F493A
:1020F000083108600D4800680E4908400B49086027
:102100000846006820F4802008600848083000680D
:1021100020F47D000549083108600020091D086091
:102120004FF000600449086070470000003802402A
:102130000CC0FF88FEFFFEEE08ED00E000BFFEE7EA
:1021400002E008C8121F08C1002AFAD17047704780
:10215000002001E001C1121F002AFBD1704710B519
:1021600004462046FEF7D9F910BD00000EB54FF029
:10217000000AFEF7DBFAFFF773FFFFF7C9FEFFF770
:10218000A1FA4FF6FF70F0231A460021009008468E
:10219000FFF752FA00224FF400414E48FEF7B2FA20
:1021A00096E0002020214FF6FF724FF47843CDE9EE
:1021B0000021029048A20146FFF7C6FB0020102133
:1021C0004FF6FF724FF47843CDE90021029045A20B
:1021D0002821FFF72BFE10204FF6FF714FF47842B5
:1021E0000323CDE900210290F02228213020FFF7BF
:1021F000A7FD002010214FF6FF724FF47843CDE980
:102200000021029039A228215020FFF70FFE102054
:102210004FF6FF714FF478420323CDE9002102907D
:10222000F02228218020FFF78BFD002010214FF69F
:10223000FF724FF47843CDE9002102902BA22821B0
:102240005020FFF7F3FD002010214FF6FF724FF4EE
:102250007843CDE90021029026A24621FFF7E6FD52
:1022600010204FF6FF714FF478420423CDE900218E
:102270000290524646218020FFF714FD5046FEF79B
:1022800042F80746204A214BFDF782FF0546FEF73C
:102290004DF882464FF0000917E000240FE01C487B
:1022A00009EB8902782303EBC20104EB840200905E
:1022B000D00028231A46FFF78CFD601CC4B2062C00
:1022C000EDDB09F1010000F0FF09B9F1030FE4DBD8
:1022D00067E7000000000240D6D0BEB0D4B0B5E73A
:1022E000D7D300004C43445F573A00004C43445F4F
:1022F000483A0000496E637265617365696E6720D4
:102300004E756E3A00000000295C8FC2F528BC3F74
:102310002A23000810B50246012000E050430B1E9E
:10232000A1F10104E1B2F9D110BDFFFFFFFFFFFFF2
:10233000FFFFFFFFFFFFFFFFFFFFFFFFFFFFFFFFAD
:10234000FFFFFFFFFFFFFFFFF7BEFFFFFFDEC63807
:102350008C926B8E6B6E7C10AD96E73CFFFFFFFF9F
:10236000FFFFFFFFFFFFFFFFFFFFFFFFFFFFFFFF7D
:10237000FFFFFFFFFFFFFFFFFFFFFFFFFFFFFFFF6D
:10238000FFFFFFFFFFFFFFFFFFFFFFFFFFFFFFFF5D
:10239000FFFFFFFFFFFFFFFFEF5D9D15634F426CE7
:1023A000320A298819461925214531E86B8EC6382D
:1023B000FFFFFFFFFFFFFFFFFFFFFFFFFFFFFFFF2D
:1023C000FFFFFFFFFFFFFFFFFFFFFFFFFFFFFFFF1D
:1023D000FFFFFFFFFFFFFFFFFFFFFFFFFFFFFFFF0D
:1023E000FFFFFFFFFFFFA53653104B1053514B0F5C
:1023F0003A6C31E92167192510E408A300620883CB
:1024000052CBD69AFFFFFFFFFFFFFFFFFFFFFFFF4B
:10241000FFFFFFFFFFFFFFFFFFFFFFFFFFFFFFFFCC
:10242000FFFFFFFFFFFFFFFFFFFFFFFFFFFFFFFFBC
:10243000FFFFE73C637063B37CB863F54311324D33
:1024400029EA21881926190519051104110410E437
:10245000008308A38C72FFFFFFFFFFFFFFFFFFFF5A
:10246000FFFFFFFFFFFFFFFFFFFFFFFFFFFFFFFF7C
:10247000FFFFFFFFFFFFFFFFFFFFFFFFFFFFFFFF6C
:10248000DEDB3A4B42F06C354B5432B12A2E21EB55
:1024900021A919671905110411041104110411046B
:1024A000190510E4004273AFFFFFFFFFFFFFFFFFBE
:1024B000FFFFFFFFFFFFFFFFFFFFFFFFFFFFFFFF2C
:1024C000FFFFFFFFFFFFFFFFFFFFFFFFFFFFEF5DCE
:1024D0003209324C4B10328F2A4F2A2E19CC1989CF
:1024E0002189194719051104110410C410C41104DD
:1024F0001104110410E400428431FFFFFFFFFFFFCD
:10250000FFFFFFFFFFFFFFFFFFFFFFFFFFFFFFFFDB
:10251000FFFFFFFFFFFFFFFFFFFFFFFFFFFF52EC8B
:102520001947324C2A0B21EC21EC220C5B914AEE2C
:1025300011061926190410E410E429A7216608A33E
:1025400019051104110410E40082BDF7FFFFFFFF1D
:10255000FFFFFFFFFFFFFFFFFFFFFFFFFFFFFFFF8B
:10256000FFFFFFFFFFFFFFFFFFFFFFFFA535088312
:1025700021882188218921AA218A426B8C71FFFF41
:102580008C720883110408C44229DEFBEF5D5AEC0B
:102590000883110411041104088331E8FFDFFFFFF1
:1025A000FFFFFFFFFFFFFFFFFFFFFFFFFFFFFFFF3B
:1025B000FFFFFFFFFFFFFFFFFFFFF7BE31C710C4A4
:1025C000192519261947194729A8528A4A28AD55AD
:1025D000FFFF31E808A319056B4D6B4DFFFFEF7D41
:1025E000214510C41104110411040062AD76FFFFEF
:1025F000FFFFFFFFFFFFFFFFFFFFFFFFFFFFFFFFEB
:10260000FFFFFFFFFFFFFFFFFFFFB5960062110412
:1026100019041105190508C44A8BB5B6EF5DBDF75D
:10262000FFFF6B8E006242295AAA4208FFFFFFFF9C
:1026300052CC088311041104110408A352ADFFFF0A
:10264000FFFFFFFFFFFFFFFFFFFFFFFFFFFFFFFF9A
:10265000E71CFFFFFFFFFFFFFFFF634E0062110457
:102660001104110410E40062638EFFFFFFFFFFFFFF
:10267000FFFF73CF00019CF3632CB596FFFFFFFFB4
:102680005B2D008311041104110410E42167EF3D58
:10269000FFFFFFFFFFFFFFFFFFFFBDF8B5B7EF9E96
:1026A00052CB94B3FFFFFFFFFFDF31E808A3110413
:1026B00011041104110408A34249F7FFF7FFFFFFBB
:1026C000FFFF4A6A00018472FFFFFFFFF7FFEFDFA1
:1026D0003A0908A311041104110411041105BE18CC
:1026E000FFFFFFFFFFFFFFFFFFFF7BF0006231E80E
:1026F00031C70041A535FFFFEF5D214610C411042D
:1027000011041104110410E408A39D76F7FFFFFFE4
:10271000ADB708A308A331C7E79EF7FFF7FFA5767B
:1027200008A310E411041104110411051105A535C5
:10273000FFFFFFFFFFFFFFFFFFFFDEDB29A7008397
:1027400010C410C410C4E71CEF9E110510E411045E
:10275000110411041104190408C410E56BD16BD1E4
:1027600008C5006408A50043322B9D7784B3192562
:1027700010C41104110411041104192509269D35F2
:10278000FFFFFFFFFFFFFFFFFFFFFFFF73AF0062D1
:102790001904190500825B0D9B8E1062110511044E
:1027A0001104190410E40085110539C45A817B40D5
:1027B0009C22AC43A4039B837282498218C200A46A
:1027C00000C510E4190411041905194711675AECE2
:1027D000FFBEFFFFFFFFFFFFFFFFFFDFDEDB10C4D9
:1027E00010E41104110518A4C001888300E4190540
:1027F000190408C521448343D523FE42FEE4FF2784
:10280000FF07FEA4FE64FE03FDA3FCE2EC42B383DB
:10281000622410E508C41904192619A8218790001C
:10282000BCD3FFFFFFFFFFFFFFFFFFDFFFFF7C10B9
:102830000042190511052883D001F84448A300E49B
:1028400008C55A44ED02FDE2FE02FE66FF74FFB8C1
:10285000FF73F6E7F6A6F645F5A4FCC3FC62FCC2DE
:10286000FCC2CBE349C411061988018790A4F80182
:102870009AECFFFFFFFFFFFFFFFFFFFFFFFFF7BE29
:1028800031E8008309054082C001F823F08548A3A0
:1028900000A45A44FD02CC23DCC2FE04FE28F64804
:1028A000F646F624F5E4FD64FCE3FC62FCC2E402B7
:1028B000DC02FCE27AA40148016778C4F824F8023B
:1028C000B084E77DFFFFFFFFFFFFFFFFFFFFFFFF7C
:1028D000DEDB192500A338C4E002D822F844F8A6AC
:1028E00078A400632143728339839B82F521FD61C3
:1028F000FD22FCE2FCA2FC42FC42FC42AB224183F2
:1029000092C352040126192598A4F844F823F8022A
:10291000D0A4EF9EFFFFFFFFFFFFFFFFFFFFFFFFC2
:10292000FFFFD69A298700A5B843F822E023F8656F
:10293000F8E8C9074883004200A3008429637AA20B
:10294000B362CBA2D362BB028A82398300A400E5C2
:1029500000E508E560C4D864F844F824F823F802D8
:102960008883C6DBFFFFFFFFFFFFFFFFFFFFFFFFC7
:10297000FFFFFFFFE73D5B503108E823F843F044D9
:10298000F865F909F9ABD189890648A31842000214
:1029900000420061008200620062008320A350C4F4
:1029A00088A5D885F865F844F844F823F823D003BF
:1029B000108229C7EF5DFFFFFFFFFFFFFFFFFFFF53
:1029C000FFFFFFFFFFFFFFFF326C38A5D802F8239F
:1029D000F865F866F8A7F94AFA0CFA4DEA4CD20BFA
:1029E000B9A9B168A947B127B907D107E8E7F8C77E
:1029F000F8A7F865F865F844F823F803D00228A38F
:102A0000090508C45AECFFFFFFFFFFFFFFFFFFFFB0
:102A1000FFFFFFFFFFFFDEFB190500C441A7C0E673
:102A2000F803F886F8A7F887F886F8C7F929F98A2D
:102A3000F9ABF9ABF98BF96AF929F908F8C7F8A6E7
:102A4000F886F865F864F823F002B106292500E459
:102A500010E4192519259D14FFFFFFFFFFFFFFFF5D
:102A6000FFFFFFFFFFFFAD96006208829535CEBAEB
:102A7000A28BD044F825F887F8A7F8C7F8A7F887FD
:102A8000F886F886F886F887F8A7F8A7F8A6F885F4
:102A9000F865F864F024B864930DB6BB63CF08837F
:102AA000110410E421663A49EF5DFFFFFFFFFFFFCD
:102AB000FFFFFFFFFFFF94D3004210E4CEBBFFFFF8
:102AC000E7BEB576AACCC107E045F845F846F866FA
:102AD000F886F886F886F886F865F845F865E865BA
:102AE000D044A84388019082D73CEFFF95550883D6
:102AF000110411041905194694B3FFFFFFFFFFFFEE
:102B0000FFFFFFFFFFFF94B300412186DF5DFFFF62
:102B1000FFFFFFFFE7DFC67AB4D3B34EC22AD16806
:102B2000E0E6E8A6E8A5E8A5D8E6C988A906A822AF
:102B3000A802A000C800D800E5F7E7FFADF810C470
:102B400010E4110410E411054A8BFFFFFFFFFFFFA3
:102B5000FFFFFFFFFFFFA555004129A7DF5DF7FF3E
:102B6000FFFFFFFFFFFFFFFFFFFFEFFFDF7DCEDB7C
:102B7000CE59CDF8CDD7C5F7CE79BEFBA2ABF003C9
:102B8000F845D042E843F000D472DFFFAE3910E4DC
:102B900010E4110410E411052987FFFFFFFFFFFF78
:102BA000FFFFFFFFFFFFCE5908832146D71CF7FF29
:102BB000FFFFFFFFFFFFFFFFFFFFFFFFFFFFFFFF25
:102BC000FFFFFFFFFFFFFFFFFFFFEFFFBA8BF804E0
:102BD000F845E062F044F800DB8EDFFFA5F810C492
:102BE00010E410E4110410E41925FFFFFFFFFFFFBC
:102BF000FFFFFFFFFFFFF7BE29870883B639F7FF06
:102C0000F7DFFFFFFFFFFFFFFFFFFFFFFFFFFFFFFC
:102C1000FFFFFFFFFFFFFFFFFFFFE7BEBA4AF8031A
:102C2000F845F864F844F800E36ED7FF8CF40883A5
:102C3000110410E410E410E41905FFFFFFFFFFFF8B
:102C4000FFFFFFFFFFFFFFFF73EF00008472EFFF46
:102C5000EFBEFFDFFFFFFFFFFFFFFFFFFFFFFFFFF5
:102C6000FFFFFFFFFFFFFFFFFFFFE7DFBA8BF80368
:102C7000F845F845F823F800D4D3D7FF5B4E002180
:102C80003A29A555088310C41925FFFFFFFFFFFF50
:102C9000FFFFFFFFFFFFFFFFDEFB08A331E8DF9E22
:102CA000E79EEFBFFFFFFFFFFFFFFFFFFFFFFFFFFD
:102CB000FFFFFFFFFFFFFFFFFFFFF7FFBC51E00239
:102CC000F803F003E043C2ECCF7EBEFC21460021B6
:102CD00094D3FFFF845100002987FFFFFFFFFFFF10
:102CE000FFFFFFFFFFFFFFFFFFFF845100008CF499
:102CF000EFFFE79EEFBFFFDFFFFFFFFFFFFFFFFFDD
:102D0000FFFFFFFFFFFFFFFFFFFFFFFFDF3DBD55A1
:102D1000BC52BC72B5B7C75DDFFF6BF000003A096B
:102D2000F7BFFFFFFFFF9D14A555FFFFFFFFFFFF4C
:102D3000FFFFFFFFFFFFFFFFFFFFFFFF4AAC08A4FD
:102D4000BEBBE7DFE77EEFBEF7DFFFDFFFFFFFFF82
:102D5000FFFFFFFFFFFFFFFFFFFFFFDFF7DFEFFFDB
:102D6000DFDFD7BFD79EDFDFA5D808831126D6DBEC
:102D7000FFFFFFFFFFFFFFFFFFFFFFFFFFFFFFFF63
:102D8000FFFFFFFFFFFFFFFFFFFFEE79DC8B31212D
:102D900021A9CF3DDFBFDF7EE79EEFBEEFBFF7DFAC
:102DA000F7DFF7DFF7DFF7DFEFBFEFBEE79EDF7E8E
:102DB000D75ED75EDFDFB69A19260842A3EDFFBFC4
:102DC000FFFFFFFFFFFFFFFFFFFFFFFFFFFFFFFF13
:102DD000FFFFFFFFFFFFFFFFDD74DBC0FE00EE42E1
:102DE00042022189B67BDFDFD77EDF7EDF7EE79E72
:102DF000E79EE79EE79EE79EDF7EDF7ED75DD75D9D
:102E0000DF9EE7FFA5F8110718E3C502FD60D3E6D2
:102E1000EEDBFFFFFFFFFFFFFFFFFFFFFFFFFFFFF7
:102E2000FFFFFFFFFFFFF79EBA84FCC1FE42FE8258
:102E3000FEA2838121457474C75EDFDFD77ED75E33
:102E4000D75DD75ED75ED75DD75DD75EDF9EE7FFE4
:102E5000C73D63F108845242E626FF29FE86F3E06F
:102E6000C36AFFFFFFFFFFFFFFFFFFFFFFFFFFFF43
:102E7000FFFFFFFFFFFFDE18D2C1FDA2FE22FE42D0
:102E8000FE42FE62D4E26A4142497453A63BC73E09
:102E9000D7BFD7BFD7BFDFBFD7BFC73EA61A63F222
:102EA00029A74182B422FE62FE83FEAAFF0FFD67BE
:102EB000BA63EF3CFFFFFFFFFFFFFFFFFFFFFFFFD6
:102EC000FFFFFFFFFFFFE69AD280FD21FDC2F5E282
:102ED000F5C2F582FD82FD62DC619B216A846AE9AC
:102EE000632C63AF7411636E632C5A8952047A8128
:102EF000CBC2FCE2FD62FD82FDC2FDC2FDE4FD2409
:102F0000CA62E71CFFFFFFFFFFFFFFFFFFFFFFFF9E
:102F1000FFFFFFFFFFFFFFFFCCB1D281F3C0FCC179
:102F2000FD02FD02FCE2FCC2FCC2FC81FB80C9C0C8
:102F300081A4AD35CE599C718121DA00FBA1FC82C0
:102F4000FCA2FC82FCA2FD02FD22FCE2FC00DA6095
:102F5000CC90FFFFFFFFFFFFFFFFFFFFFFFFFFFF23
:102F6000FFFFFFFFFFFFFFFFFFFFDE59C40DCB0692
:102F7000D2E4DB03DB03DAE3D2C3C2A4B309BCD2DD
:102F8000F79EFFFFFFFFFFFFE6FBB40EBAA6D2835A
:102F9000E2E3EB02EB22E322DB03D2E4C36AD5B621
:102FA000FFFFFFFFFFFFFFFFFFFF030406080C10FA
:102FB0001820300000000000000000010203040699
:102FC00007080900000000010203040000000000DF
:102FD00000000000000000000000000000000808E1
:102FE000080808080800001818000000486C24129F
:102FF0000000000000000000000000000000242489
:10300000247F1212127F12121200000000081C2AE4
:103010002A0A0C1828282A2A1C0808000000222541
:103020001515152A585454542200000000000C12A3
:1030300012120A76252911916E000000060604037B
:103040000000000000000000000000004020101000
:1030500008080808080810102040000002040808AA
:1030600010101010101008080402000000000008E2
:10307000086B1C1C6B080800000000000000000822
:103080000808087F08080808000000000000000089
:10309000000000000000000606040300000000001D
:1030A000000000FE00000000000000000000000022
:1030B0000000000000000006060000000080404004
:1030C0002020101008080404020200000000182448
:1030D0004242424242424224180000000000080ED0
:1030E00008080808080808083E00000000003C42E4
:1030F00042422020100804427E00000000003C42B2
:1031000042201820404042221C00000000002030D5
:1031100028242422227E20207800000000007E0245
:1031200002021A26404042221C00000000003824FF
:1031300002021A26424242241800000000007E22A9
:1031400022101008080808080800000000003C428F
:1031500042422418244242423C000000000018244D
:1031600042424264584040241C000000000000001D
:1031700000181800000000181800000000000000EF
:1031800000000800000000000808040000004020C3
:103190001008040204081020400000000000000095
:1031A000007F0000007F000000000000000002041B
:1031B00008102040201008040200000000003C42DB
:1031C00042464020101000181800000000001C2289
:1031D0005A555555552D42221C0000000000080884
:1031E000181414243C224242E700000000001F2271
:1031F00022221E22424242221F00000000007C4286
:1032000042010101010142221C00000000001F22B6
:1032100042424242424242221F00000000003F421E
:1032200012121E12120242423F00000000003F42F2
:1032300012121E12120202020700000000003C22BD
:1032400022010101712122221C0000000000E7423E
:103250004242427E42424242E700000000003E08F5
:1032600008080808080808083E00000000007C1054
:10327000101010101010101010110F000000772205
:10328000120A0E0A12122222770000000000070222
:1032900002020202020202427F00000000007736B2
:1032A0003636362A2A2A2A2A6B0000000000E34616
:1032B000464A4A52525262624700000000001C22F5
:1032C00041414141414141221C00000000003F4278
:1032D0004242423E020202020700000000001C229D
:1032E00041414141414D53321C60000000003F42CA
:1032F00042423E1212222242C700000000007C42DD
:1033000042020418204042423E00000000007F4973
:1033100008080808080808081C0000000000E74228
:1033200042424242424242423C0000000000E74228
:1033300042222424141418080800000000006B49DD
:103340004949495555362222220000000000E74233
:103350002424181818242442E700000000007722D3
:1033600022141408080808081C00000000007E2130
:1033700020101008040442423F00000078080808AA
:103380000808080808080808087800000002020475
:103390000408080810102020204040001E101010C3
:1033A0001010101010101010101E000038440000F3
:1033B000000000000000000000000000000000000D
:1033C00000000000000000000000FF0006080000F0
:1033D00000000000000000000000000000000000ED
:1033E00000003C4278444242FC000000000003021E
:1033F00002021A26424242261A0000000000000083
:10340000000038440202024438000000000060401E
:103410004040784442424264D8000000000000006E
:1034200000003C427E0202423C0000000000F088A6
:1034300008087E08080808083E0000000000000098
:1034400000007C22221C023C42423C00000003029D
:1034500002023A4642424242E700000000000C0CE1
:1034600000000E08080808083E0000000000303088
:10347000000038202020202020221E00000003020F
:10348000020272120A1612227700000000000E08D3
:1034900008080808080808083E00000000000000AE
:1034A00000007F9292929292B7000000000000000C
:1034B00000003B4642424242E7000000000000009C
:1034C00000003C42424242423C000000000000003A
:1034D00000001B26424242221E020700000000009C
:1034E00000007844424242447840E000000000007E
:1034F0000000774C040404041F00000000000000DA
:1035000000007C42023C40423E00000000000000FF
:1035100008083E0808080808300000000000000005
:103520000000634242424262DC00000000000000F2
:103530000000E742242414080800000000000000F6
:103540000000EB4949555522220000000000000010
:1035500000007624181818246E00000000000000F7
:103560000000E742242414180808070000000000A7
:1035700000007E22100808447E000000C0202020A9
:10358000202010202020202020C00010101010101B
:10359000101010101010101010101000060808085D
:1035A00008081008080808080806000C32C20000C5
:1035B000000000000000000000000000000000000B
:1035C00000000000000000000000000000000000FB
:1035D00000000000000000000000000000000000EB
:1035E00000000000000000000000000000000000DB
:1035F00000000000000000000000000000000000CB
:103600000000000000C001C001C001C001C001C035
:1036100001C0018000800080008000800080008068
:103620000000000000000000008001C003C0038013
:103630000100000000000000000000000000000089
:1036400000E01CE01CF01E700E380718030801840F
:10365000000000000000000000000000000000006A
:10366000000000000000000000000000000000005A
:10367000000000000000000000000000000000004A
:10368000000000000000002010201020102010205A
:1036900010FE7FFE7F100810081008100810081098
:1036A000081008FE7FFE7F080408040804080408C8
:1036B0000400000000000000000000000000000006
:1036C00000000000010001C0076019103118311816
:1036D00039183938017001E001C0038007000F007C
:1036E0001D003900311C311C310C310C11180DE05A
:1036F00007000100010001000000000000000000C0
:10370000000000000000001C1036186308630C6302
:10371000046304630263026301361D9C37802280C8
:1037200063406340632063206330631022183608CF
:103730001C0000000000000000000000000000006D
:1037400000000000000000F00098018C018C018C4A
:10375000018C018C00CC007800183E1C0836083221
:103760000863046304C304C303834306438E2678BB
:103770001C0000000000000000000000000000002D
:10378000001C003C003C003000300010000C000623
:103790000000000000000000000000000000000029
:1037A0000000000000000000000000000000000019
:1037B0000000000000000000000000000000000009
:1037C000000040002000100008000C00040006006B
:1037D00003000300038001800180018001800180DB
:1037E00001800180010003000300030006000600C1
:1037F0000C00080010002000400000000000000045
:10380000000200040008001000300020006000C02A
:1038100000C000C000800180018001800180018023
:103820000180018001C000C000C000600060003065
:10383000001000080004000200000000000000006A
:103840000000000000000000000000000180038074
:103850000300011C713C79783DC0070001C0077866
:103860003D3C791C71000180038003800100000051
:103870000000000000000000000000000000000048
:103880000000000000000000000000000000010037
:103890000100010001000100010001FC7F000100A6
:1038A0000100010001000100010001000000000012
:1038B0000000000000000000000000000000000008
:1038C00000000000000000000000000000000000F8
:1038D00000000000000000000000000000000000E8
:1038E00000000000000000000000001C003C003C44
:1038F000003000300010000C000600000000000046
:1039000000000000000000000000000000000000B7
:103910000000000000000000000000FE7F0000002A
:103920000000000000000000000000000000000097
:103930000000000000000000000000000000000087
:103940000000000000000000000000000000000077
:103950000000000000000000000000000000000067
:1039600000000000000000000018003C003C0018AF
:103970000000000000000000000000000000000047
:103980000000400060002000300010001800080017
:103990000C0004000600020003000180018000C04A
:1039A0000040006000200030001000180008000CEB
:1039B00000040006000200000000000000000000FB
:1039C00000000000000000C007600C30181830181C
:1039D0003018200C600C600C600C600C600C600CEB
:1039E000600C600C601820183018303018600CC063
:1039F00007000000000000000000000000000000C0
:103A00000000000000000000018001F8018001803A
:103A1000018001800180018001800180018001809E
:103A200001800180018001800180018001C003F8D4
:103A30001F00000000000000000000000000000067
:103A400000000000000000E007101C08180430040B
:103A5000300C300C30003000180008000400020068
:103A600001800040002020102008200430FC1FFCB2
:103A70001F00000000000000000000000000000027
:103A800000000000000000E003180E0C0C0C180CE5
:103A9000180C180018000C0006C003000E001800D7
:103AA00010003000300C300C300C100C18180CE0EA
:103AB0000300000000000000000000000000000003
:103AC00000000000000000000C000E000E000F803F
:103AD0000E800E400E600E200E100E100E080E040A
:103AE0000E040EFE7F000E000E000E000E000E00F3
:103AF0000EC07F0000000000000000000000000079
:103B000000000000000000F03FF03F100010001027
:103B10000008000800C807280C181808100030001A
:103B200030003000300C300C3004180418080CF051
:103B30000300000000000000000000000000000082
:103B400000000000000000800FC01020301030186E
:103B500000180008000C008C0F6C183C301C600C26
:103B6000600C600C600C601860182030306018C069
:103B7000070000000000000000000000000000003E
:103B800000000000000000F83FF83F1C100C080483
:103B9000080404000400020002000100010001808A
:103BA0000080008000C000C000C000C000C000C095
:103BB0000000000000000000000000000000000005
:103BC00000000000000000E007300C18180C300C5A
:103BD000300C301C3038187008E007B007180E0C95
:103BE0001C063806300630063006300C18180CE07B
:103BF00003000000000000000000000000000000C2
:103C000000000000000000E00318040C080C180677
:103C100010063006300630063006380C3C1836F0F8
:103C20003100300018001800180C0C0C060C03F0C2
:103C30000100000000000000000000000000000083
:103C40000000000000000000000000000000000074
:103C500000000000008001C003C0038001000000DC
:103C60000000000000000000008001C003C00380CD
:103C70000100000000000000000000000000000043
:103C80000000000000000000000000000000000034
:103C90000000000000C000C00000000000000000A4
:103CA00000000000000000000000000000C000C094
:103CB0000080008000400040000000000000000084
:103CC00000000000000020001000080004000600B2
:103CD000038001C0006000300018000C00180030A4
:103CE000006000C00080010003000600040008001E
:103CF0001000200000000000000000000000000094
:103D000000000000000000000000000000000000B3
:103D10000000000000FE7F00000000000000000026
:103D200000FE7F0000000000000000000000000016
:103D30000000000000000000000000000000000083
:103D4000000000000004000800100020006000C017
:103D500000800100030006000C001800300018006D
:103D60000C000600038001C0006000200010000865
:103D7000000400000000000000000000000000003F
:103D80000000000000C0073018083008600C601CFC
:103D9000601C601C600030001C0006000180008078
:103DA0000080008000000000008001C003C003808C
:103DB0000100000000000000000000000000000002
:103DC00000000000000000C0076018103018200C30
:103DD0002F8C4D864CC64CC64C664C664466446679
:103DE0002666266615CC1C0C40082018303018C0FA
:103DF00007000000000000000000000000000000BC
:103E000000000000000001C001C001C001400160CD
:103E1000032003200320033006100610061006F8C6
:103E20000F080C080C080C0C0C0418041806181FBA
:103E30007C00000000000000000000000000000006
:103E400000000000000000FE07181C183818301889
:103E500030183018301818180CF8071818183018BF
:103E6000201860186018601860186018301818FE64
:103E70000F00000000000000000000000000000033
:103E800000000000000000C0276038103018200C2F
:103E9000400C40040006000600060006000600066E
:103EA00000060006000C400C400C2018303018C0F2
:103EB00007000000000000000000000000000000FB
:103EC00000000000000000FE03180E18181830183B
:103ED0003018301860186018601860186018601882
:103EE00060186018601830183018101818180EFE76
:103EF00003000000000000000000000000000000BF
:103F000000000000000000FE3F1830182018601864
:103F100040180018081808180CF80F180C18081882
:103F2000081800180018001840184018201830FE13
:103F30003F00000000000000000000000000000042
:103F400000000000000000FE7F1870184018C01824
:103F5000801800181018101818F81F1818181018C2
:103F60001018001800180018001800180018007E1B
:103F70000000000000000000000000000000000041
:103F800000000000000000C013701C101018100C7E
:103F9000200C2004000600060006000600060006AD
:103FA000FC063006300C300C30183018303008C0A9
:103FB00007000000000000000000000000000000FA
:103FC000000000000000003F7E0C180C180C180CBC
:103FD000180C180C180C180C180C18FC1F0C180CCA
:103FE000180C180C180C180C180C180C180C183F7E
:103FF0007E00000000000000000000000000000043
:1040000000000000000000F81F8001800180018096
:104010000180018001800180018001800180018098
:10402000018001800180018001800180018001F810
:104030001F00000000000000000000000000000061
:1040400000000000000000E07F00060006000600FF
:104050000600060006000600060006000600060030
:104060000600060006000600060006000600060020
:104070000600060E060E038E01FC00000000000084
:10408000000000000000007E7C18181808180418B2
:10409000061802180198019801D801B803380318CE
:1040A000071806180E180C181C1818183018307E2F
:1040B000FC00000000000000000000000000000004
:1040C000000000000000007E001800180018001812
:1040D0000018001800180018001800180018001820
:1040E000001800180018001840184018201830FE5A
:1040F0003F00000000000000000000000000000081
:10410000000000000000001FF81C381C381C381C80
:104110003C3434343434343436743264326432648B
:10412000326431C431C431C431C430C43084309FAE
:10413000FC00000000000000000000000000000083
:10414000000000000000001F7C1C103C10341034E4
:104150001074106410E410C410C41184118413048A
:104160001304170416041E041C041C041C04181F4A
:104170001800000000000000000000000000000027
:1041800000000000000000C003300C181808100CDC
:10419000300C300660066006600660066006600649
:1041A00060066006600C200C3008101818300CC037
:1041B00003000000000000000000000000000000FC
:1041C00000000000000000FE0F18181830186018DA
:1041D0006018601860186018301818F80F18001868
:1041E0000018001800180018001800180018007EA9
:1041F00000000000000000000000000000000000BF
:1042000000000000000000C003300C18180C100C57
:10421000300C2006600660066006600660066006D8
:104220006006600660E4612C331C321816300EC044
:1042300007004C007C003800000000000000000077
:1042400000000000000000FE07181C183818301885
:1042500030183018301818180CF80798031803187D
:104260000718061806180E180C180C181C18187EBB
:1042700078000000000000000000000000000000C6
:1042800000000000000000E027303818300C200C3F
:10429000200C000C0018007800E003800F001E00C6
:1042A000380070006004600460086018303818C876
:1042B0000F000000000000000000000000000000EF
:1042C00000000000000000FC3F8C218461824182DC
:1042D0004180018001800180018001800180018096
:1042E000018001800180018001800180018001E066
:1042F00007000000000000000000000000000000B7
:10430000000000000000003F7C0C100C100C100C92
:10431000100C100C100C100C100C100C100C100CBD
:10432000100C100C100C100C100C1008083804E0C5
:10433000030000000000000000000000000000007A
:10434000000000000000003EF8182018201820305F
:1043500010301030103010600860086008E00CC0A9
:1043600004C004C0048003800380038003000100B4
:10437000010000000000000000000000000000003C
:1043800000000000000000DFF38661862186218C9A
:10439000210C218C238C138C138C134C1358125822
:1043A00016580E380E380E380E300C10041004104B
:1043B00004000000000000000000000000000000F9
:1043C000000000000000007E3E180838083004306D
:1043D0000470026002E001C001C00180018003405E
:1043E00003400720062006100C100C081808183E81
:1043F0007C00000000000000000000000000000041
:10440000000000000000007E7C1C1018101808300E
:1044100008300C700460046002C002C002C0018059
:10442000018001800180018001800180018001E024
:104430000700000000000000000000000000000075
:1044400000000000000000F83F18180818040C04D1
:104450000E00060007000380038001C001C000E0D9
:1044600000600070003000382018201C100C18FE6E
:104470001F0000000000000000000000000000001D
:1044800000C03F400040004000400040004000406D
:10449000004000400040004000400040004000401C
:1044A000004000400040004000400040004000400C
:1044B0000040004000C03F0000000000000000007D
:1044C0000000000000080018001800100030002054
:1044D00000600060004000C000800080018001009A
:1044E0000100030002000600060004000C000800A2
:1044F000180018001000300020000000000000002C
:1045000000FC0300020002000200020002000200A0
:10451000020002000200020002000200020002008B
:10452000020002000200020002000200020002007B
:104530000200020002FC0300000000000000000076
:10454000008007C0062008101000000000000000D6
:10455000000000000000000000000000000000005B
:10456000000000000000000000000000000000004B
:10457000000000000000000000000000000000003B
:10458000000000000000000000000000000000002B
:10459000000000000000000000000000000000001B
:1045A000000000000000000000000000000000000B
:1045B000000000000000000000FFFF0000000000FD
:1045C000007800C0000001000000000000000000B2
:1045D00000000000000000000000000000000000DB
:1045E00000000000000000000000000000000000CB
:1045F00000000000000000000000000000000000BB
:1046000000000000000000000000000000000000AA
:104610000000000000F00318060C0C0C0C000C80CD
:104620000F700C1C0C0C0C060C060C064C0C4FF8F6
:104630003800000000000000000000000000000042
:10464000000000000010001E0018001800180018DC
:104650000018001800180FD8183830386018601883
:10466000601860186018601860182038307818C812
:104670000700000000000000000000000000000033
:10468000000000000000000000000000000000002A
:104690000000000000C007700C181818180C180C47
:1046A000000C000C000C000C20182018103008C062
:1046B00007000000000000000000000000000000F3
:1046C00000000000000010001E0018001800180074
:1046D0001800180018E01B301C181818180C180CBB
:1046E000180C180C180C180C180818181C307AE044
:1046F00009000000000000000000000000000000B1
:1047000000000000000000000000000000000000A9
:104710000000000000C007300C181808100C300C06
:1047200030FC3F0C000C000C00182018107018C052
:104730000700000000000000000000000000000072
:1047400000000000000000003E80C380C0C0C0C068
:1047500000C000C000FC1FC000C000C000C000C0FE
:1047600000C000C000C000C000C000C000C000F811
:104770000F0000000000000000000000000000002A
:104780000000000000000000000000000000000029
:104790000000000000C077306C10181818181818A6
:1047A000181018300CF00718001800F00FF03F0830
:1047B000700C600C600C603838E00F0000000000E6
:1047C000000000000010001E00180018001800185B
:1047D0000018001800980FD8183830183018301802
:1047E0003018301830183018301830183018307E23
:1047F000FC000000000000000000000000000000BD
:10480000000000000000008003800380030000001F
:104810000000000001F8018001800180018001801A
:10482000018001800180018001800180018001F808
:104830001F00000000000000000000000000000059
:1048400000000000000000003800380038000000C0
:104850000000000010801F00180018001800180049
:104860001800180018001800180018001800180088
:104870001800180018180C1806F0030000000000BB
:10488000000000000010001E00180018001800189A
:104890000018001800183E180C1806180318019884
:1048A00001D801380318071806180C181C18187EB0
:1048B0007C0000000000000000000000000000007C
:1048C00000000000000001F80180018001800180EB
:1048D00001800180018001800180018001800180D0
:1048E000018001800180018001800180018001F848
:1048F0001F00000000000000000000000000000099
:1049000000000000000000000000000000000000A7
:104910000000000800EE1C9C338C318C318C318CF3
:10492000318C318C318C318C318C318C318C31DE4D
:104930007B000000000000000000000000000000FC
:104940000000000000000000000000000000000067
:1049500000000010001E0FD818383018301830181A
:104960003018301830183018301830183018307EA1
:10497000FC0000000000000000000000000000003B
:104980000000000000000000000000000000000027
:104990000000000000C007701C103018300C600CC4
:1049A000600C600C600C600C60183018303018C05F
:1049B00007000000000000000000000000000000F0
:1049C00000000000000000000000000000000000E7
:1049D00000000010009E0F5818383018201860187A
:1049E00060186018601860186018303830781898AF
:1049F0000718001800180018007E000000000000D2
:104A000000000000000000000000000000000000A6
:104A10000000000000C023303C183818300C300C67
:104A2000300C300C300C300C3008301838303CE092
:104A300033003000300030003000FC000000000087
:104A40000000000000000000000000000000000066
:104A500000000060007E3C60666061E000E0006095
:104A6000006000600060006000600060006000FEA8
:104A7000070000000000000000000000000000002F
:104A80000000000000000000000000000000000026
:104A90000000000000E0273038183018201800709F
:104AA00000E003800F001C043004300C301C18ECB4
:104AB0000F000000000000000000000000000000E7
:104AC0000000000000000000000000800080008066
:104AD00000C000E000FC1FC000C000C000C000C05B
:104AE00000C000C000C000C000C020C02080110075
:104AF0000F000000000000000000000000000000A7
:104B000000000000000000000000000000000000A5
:104B100000000010201E3C183018301830183018D3
:104B20003018301830183018301830183830F4E099
:104B30001300000000000000000000000000000062
:104B40000000000000000000000000000000000065
:104B500000000000007E3C181818083808300430A7
:104B600004700260026002E001C001C001C0008068
:104B70000000000000000000000000000000000035
:104B80000000000000000000000000000000000025
:104B90000000000000DFF78E630C238C238C239829
:104BA00013981358165816700E700E700E200420AD
:104BB00004000000000000000000000000000000F1
:104BC00000000000000000000000000000000000E5
:104BD0000000000000FC3E70087004E004C002C049
:104BE000018003800340076006200C100C18183E5B
:104BF0007E00000000000000000000000000000037
:104C000000000000000000000000000000000000A4
:104C100000000000007E7C181818083008300830AA
:104C20000460046004C002C002C0028001800180F0
:104C3000018000800080004C003C0000000000006B
:104C40000000000000000000000000000000000064
:104C50000000000000FC1F0C0C040E040600038082
:104C6000038001C000E0007020302038301C18FCA8
:104C70001F00000000000000000000000000000015
:104C800000003000080004000400040004000400D8
:104C9000040004000400040004000280010002007B
:104CA00004000400040004000400040004000400E4
:104CB00004000400040008003000000001000100AE
:104CC00001000100010001000100010001000100DC
:104CD00001000100010001000100010001000100CC
:104CE00001000100010001000100010001000100BC
:104CF00001000100010001000100010000000000AE
:104D0000000C0010002000200020002000200020C7
:104D100000200020002000200040008001400020F2
:104D20000020002000200020002000200020002083
:104D3000002000200010000C00000000003800C41B
:104D400000864002610022001C00000000000000FC
:104D50000000000000000000000000000000000053
:104D60000000000000000000000000000000000043
:104D70000000000000000000000000D6D08000808D
:104D80000080008000FC1F84108410841084108434
:104D900010FC1F84108000800080008000BEB0F8EE
:104DA0000F0808F80F0808F80F8000FF7F0000F8D0
:104DB0000F08080808F80F80008410A2204000D4D3
:104DC000B00000FE3F0220F22702200220FA2F222C
:104DD0002122212221122912290A2E0220FE3F021D
:104DE00020B5E7800080008000FC1F8410841084C0
:104DF00010FC1F841084108410FC1F84508040809D
:104E000040007FD7D30000FE1F000800040002808E
:104E1000018000FF7F800080008000800080008093
:104E200000A0004000D6D0000000000000001800E4
:104E3000000800000800000800080818F8FF1F1804
:104E40000818180818180818180818180818180842
:104E500018F8FF1F080808000800000800000800F4
:104E6000000800001800001800001800000000BE34
:104E7000B0000000000000400006C0FF0740000630
:104E8000C0FF07400006C0FF07400802003000FED8
:104E9000FF3F000000C0FF07C00002C00002C000CA
:104EA00002C0FF0380100080110160100E30101846
:104EB0000C1E30001C00000000D4B00000000000F8
:104EC00000080030F8FF1F08001008C010083F104D
:104ED000080010080010080013C8FF10082210086E
:104EE00022100822100822100821120821148860BC
:104EF0001648C013280010080010F8FF1F08001003
:104F0000000000B5E70000000000000018000008E5
:104F100000000800000800F0FF0F1008041008044B
:104F2000100804100804F0FF07100804100804100B
:104F30000804100804F0FF0710080000081000081B
:104F40001000082000183000F01F000000D7D30028
:104F50000000000000000004F0FF0F000006000049
:104F60000100C000002800001800001800001830E0
:104F7000FEFF7F0018000018000018000018000055
:104F80001800001800001800001800001800001F8A
:104F900000000C00000000D6D0000000000000005F
:104FA00000008000000080010000800100008001FE
:104FB0000000800100008001001080010CF0FFFF64
:104FC0000F30800104308001043080010430800102
:104FD00004308001043080010430800104308001FD
:104FE00004F0FFFF073080010430800104008001DD
:104FF00000008001000080010000800100008001AD
:10500000000080010000800100008001000080019C
:10501000000080000000000000BEB00000000000A2
:10502000000000000000000001800100FFFF0100FF
:105030000380010003800100FFFF010003800100E5
:1050400003800100FFFF01008181000000030000D8
:1050500000031CFCFFFF3F000040000003C00100F4
:10506000FFFF010003C0000003C0000003C00000F8
:10507000FFFF000001410000040100000E7100006C
:10508000078101800101076000010E1898011C04CE
:10509000E0011800C0000000000000D4B0000000D3
:1050A000000000000000000008F0FFFF1F300000BB
:1050B0000C3000000C3000100C30FE3F0C300400AF
:1050C0000C3000000C3000000C3000000C3000C030
:1050D0000CF0FFFF0D3030060E3030060C3010069D
:1050E0000C3010060C3010060C3018860C30188668
:1050F0000C3008060D300C860D3006EE0F3002FC29
:105100000D3001000CF000000C3000000CF0FFFF2F
:105110000F3000000C1000000400000000B5E70094
:105120000000000000000000C0000000C0010000FE
:10513000C0000000C0000000C0000000C00000E08F
:10514000FFFF0360C0000360C0000360C000036095
:10515000C0000360C0000360C00003E0FFFF036005
:10516000C0000360C0000360C0000360C0000360B3
:10517000C00003E0FFFF0360C0000160C00000004A
:10518000C0000800C0001000C0001000C0001800DF
:10519000C001380080FF1F0000000000000000D7A1
:1051A000D30000000000000000000000000000002C
:1051B00003C0FFFF07000080070000C00000006080
:1051C000000000180000000C0000800300008003B5
:1051D0000000800100008001080080011CFCFFFF2E
:1051E0003F0080010000800100008001000080017C
:1051F00000008001000080010000800100008001AB
:10520000000080010000800100008001000080019A
:105210000000FC010000E000000040000000000071
:1052200000000000445200080000002008000000B8
:10523000402100084C520008080000200004000033
:0C5240005021000868FF1F000000000063
:04000005080000F5FA
:00000001FF
