:020000040800F2
:1000000078070020CD010008DD1300081D06000858
:10001000D91300087D0200088717000800000000BF
:10002000000000000000000000000000291500088A
:100030006D04000800000000DF1300083D160008F2
:10004000E7010008E7010008E7010008E7010008F0
:10005000E7010008E7010008E7010008E7010008E0
:10006000E7010008E7010008E7010008E7010008D0
:10007000E7010008E7010008E7010008E7010008C0
:10008000E7010008E7010008E7010008E7010008B0
:10009000E7010008E7010008E7010008E7010008A0
:1000A000E7010008E7010008E7010008E701000890
:1000B000E7010008E7010008E7010008E701000880
:1000C000E7010008E7010008E7010008E701000870
:1000D000E7010008A1160008E7010008E701000891
:1000E000E7010008E7010008E7010008E701000850
:1000F000E7010008E7010008E7010008E701000840
:10010000E7010008E7010008E7010008E70100082F
:10011000E7010008E7010008E7010008E70100081F
:10012000E7010008E7010008E7010008E70100080F
:1001300000F002F800F03AF80AA090E8000C8244BF
:100140008344AAF10107DA4501D100F02FF8AFF29C
:10015000090EBAE80F0013F0010F18BFFB1A43F0A5
:1001600001031847C0260200E0260200103A24BF0F
:1001700078C878C1FAD8520724BF30C830C144BF0C
:1001800004680C607047000000230024002500264E
:10019000103A28BF78C1FBD8520728BF30C148BFEA
:1001A0000B6070471FB51FBD10B510BD00F033F8D0
:1001B0001146FFF7F7FF01F039FB00F051F803B4E7
:1001C000FFF7F2FF03BC01F0E0FA000009488047A6
:1001D00009480047FEE7FEE7FEE7FEE7FEE7FEE729
:1001E000FEE7FEE7FEE7FEE704480549054A064B41
:1001F0007047000041160008310100087801002016
:1002000078070020780300207803002070477047AB
:10021000704770477047754600F02CF8AE460500F1
:100220006946534620F00700854618B020B5FFF711
:10023000DBFFBDE820404FF000064FF000074FF015
:1002400000084FF0000B21F00701AC46ACE8C009F4
:10025000ACE8C009ACE8C009ACE8C0098D467047FD
:1002600010B50446AFF300802046BDE81040FFF70C
:10027000A6BF0000004870471801002000BFFEE73D
:1002800000F0805111B10349086001E00249486063
:1002900070470000040402400000024021B10268DF
:1002A00042F00102026004E002684FF6FE731A4059
:1002B0000260704701684FF6FE7211400160002134
:1002C000016041608160C1604B49884208D14A4960
:1002D0000839496841F00F01474A083A51608AE0FD
:1002E00045491431884208D143490839496841F0E9
:1002F000F001414A083A51607DE03F492831884287
:1003000008D13D490839496841F470613A4A083AD0
:10031000516070E038493C31884208D1364908398B
:10032000496841F47041344A083A516063E0324907
:100330005031884208D130490839496841F4702168
:100340002D4A083A516056E02B496431884208D161
:1003500029490839496841F47001274A083A51602F
:1003600049E025497831884208D12349083949684C
:1003700041F07061204A083A51603CE01F498842D0
:1003800006D1011F096841F00F01021F116032E020
:100390001A491431884208D11849091F096841F0E7
:1003A000F001164A121F116025E0144928318842D5
:1003B00008D11249091F096841F470610F4A121FE0
:1003C000116018E00D493C31884208D10B49091FE2
:1003D000096841F47041094A121F11600BE0074996
:1003E0005031884207D10549091F096841F470213D
:1003F000024A121F116070470800024008040240C0
:1004000001460020002201F0805313B1054B1A6809
:1004100001E0054B1A6802EA01030BB1012000E07C
:1004200000207047000402400000024010B5002286
:10043000026847F6F0739A430C6A8B6823430C6991
:1004400023434C6923438C692343CC6923434C6A7F
:1004500023438C6A23431A430260CB6843600B68D2
:1004600083604B68C36010BD4160704770472DE9E1
:10047000F04102460025002600200023002400272A
:1004800091F803C00CF00F0591F803C00CF0100CAC
:10049000BCF1000F03D091F802C04CEA050591F8B9
:1004A00000C0BCF1000F31D0146800202BE04FF0E9
:1004B000010C0CFA00F3B1F800C00CEA03069E42EE
:1004C00020D183004FF00F0C0CFA03F7BC4305FA60
:1004D00003FC4CEA040491F803C0BCF1280F06D1D8
:1004E0004FF0010C0CFA00FCC2F814C00AE091F8BD
:1004F00003C0BCF1480F05D14FF0010C0CFA00FC11
:10050000C2F810C0401C0828D1D31460B1F800C054
:10051000BCF1FF0F34DD546800202EE000F1080C20
:100520004FF0010808FA0CF3B1F800C00CEA03061A
:100530009E4221D183004FF00F0C0CFA03F7BC430D
:1005400005FA03FC4CEA040491F803C0BCF1280F3F
:1005500005D100F1080C08FA0CF8C2F8148091F8E3
:1005600003C0BCF1480F07D100F1080C4FF001089F
:1005700008FA0CF8C2F81080401C0828CED354604A
:10058000BDE8F081F0B50A460023002400210025D3
:1005900000F00046B6F1004F02D11D4EF16901E0B6
:1005A0001B4E7168C0F3034583B200F44016B6F5E4
:1005B000401F08D121F07061154E766826F07066F4
:1005C000134F7E6012E000F48016B6F5801F06D14E
:1005D000032606FA05F4A14341F0706106E0460DDA
:1005E000360103FA06F6B14341F0706122B1460DBF
:1005F000360103FA06F6314300F00046B6F1004F2B
:1006000002D1034EF16101E0014E7160F0BD0000C6
:1006100000000140416170470161704700BFFEE783
:100620002DE9F04107460C4615461E462A2000F0EB
:1006300011FE384600F0FFFD284600F0FCFD2B209F
:1006400000F008FE204600F0F6FD304600F0F3FD15
:100650002C2000F0FFFDBDE8F08170B504460D468A
:1006600016462B46224629462046FFF7D9FF30463C
:1006700000F0E1FD70BD00002DE9F84F0746884607
:1006800014461D46DDF828904FF0010ACDF8009081
:10069000E01BA5EB080100FB01F6681E83B2601E9B
:1006A00082B241463846FFF7BBFF08212748FFF7D3
:1006B000B1FF2748008840F40060254908800121E7
:1006C000234800F0F3FE26E04FF6FE70864202D982
:1006D000361A834602E04FF0000AB3461FFA8BF346
:1006E0006A461B490C311B4800F032FE01220221F0
:1006F000174800F0E7FE174800F05AFE09E04FF4F3
:100700000070FFF77DFE20B14FF40070FFF7B8FDD9
:1007100000E0F4E700BFBAF1000FD5D108210B4883
:10072000FFF77AFF0A480088C04309490880084655
:10073000008840F40060088008460088C0430880B4
:100740000121034800F0B2FEBDE8F88F0008014027
:10075000003001403000024008B50121042000F0C3
:100760004FFE1E20ADF8000010208DF8030003207E
:100770008DF8020069460448FFF779FE1E21024801
:10078000FFF74AFF08BD00000008014010B500F067
:1007900047FEFFF7E1FF02216248FFF73BFF6420BD
:1007A00001F01EF802215F48FFF736FF642001F0D8
:1007B00017F810215B48FFF72FFF642001F010F8B5
:1007C000112000F047FD782001F00AF8362000F0F3
:1007D00041FD002000F038FD3A2000F03BFD0520EF
:1007E00000F032FDB22000F035FD0C2000F02CFDB1
:1007F0000C2000F029FD002000F026FD332000F041
:1008000023FD332000F020FDB72000F023FD35202C
:1008100000F01AFDBB2000F01DFD322000F014FD99
:10082000C22000F017FD012000F00EFDC32000F0F3
:1008300011FD152000F008FDC42000F00BFD202064
:1008400000F002FDC62000F005FD0F2000F0FCFCCA
:10085000D02000F0FFFCA42000F0F6FCA12000F066
:10086000F3FCE02000F0F6FCD02000F0EDFC0820C6
:1008700000F0EAFC0E2000F0E7FC092000F0E4FCA8
:10088000092000F0E1FC052000F0DEFC312000F042
:10089000DBFC332000F0D8FC482000F0D5FC17200A
:1008A00000F0D2FC142000F0CFFC152000F0CCFCAE
:1008B000312000F0C9FC342000F0C6FCE12000F03B
:1008C000C9FCD02000F0C0FC082000F0BDFC0E20C8
:1008D00000F0BAFC092000F0B7FC092000F0B4FCDD
:1008E000152000F0B1FC312000F0AEFC332000F008
:1008F000ABFC482000F0A8FC172000F0A5FC142059
:1009000000F0A2FC152000F09FFC312000F09CFCC0
:10091000342000F099FC212000F09CFC292000F0FC
:1009200099FC10BD000801402DE9FF5F80468A4612
:1009300017469B460F9D00200290CDF80080284668
:1009400005EBD071C1F347042046E21704EB527265
:10095000D2102146E31704EB5373DB10A4EBC3035F
:100960000BB1012300E000231A446A4392B20192C2
:10097000A7F12000C7B20AEB0500401E83B208EBC6
:100980000400401E82B251464046FFF749FE002651
:1009900069E00C2D07D107EB4700354901EB8000DA
:1009A000805D03901BE0102D05D1324800EB07104D
:1009B000805D039013E0182D07D107EB47002E4907
:1009C00001EB0010805D039009E0202D05D12B483C
:1009D00000EB8710805D039001E0BDE8FF9F4FF0C2
:1009E00000093AE01098C8B9012000FA09F003990B
:1009F000084018B1584600F01EFC02E00E9800F0C6
:100A00001AFC0298401CC0B20290029890FBF4F1CC
:100A100004FB1100E8B90020029021E0012000FA57
:100A200009F00399084020B15A4651464046FFF765
:100A300014FE08F101001FFA80F80098A8EB0000EE
:100A4000A04206D1DDF800800AF101001FFA80FA09
:100A500006E009F1010000F0FF09B9F1080FC1DB60
:100A600000BF701C86B20198864292DB00BFB4E7DB
:100A700008EF01087CF301086CF901083C0B02083F
:100A80002DE9FE4F8046894617469A46DDE90D4618
:100A90000C9D36E00C2C09D153463A464946404657
:100AA000CDE90146009500F031F825E0102C09D180
:100AB00053463A4649464046CDE90146009500F086
:100AC000C9F819E0182C09D153463A464946404620
:100AD000CDE90146009500F059F90DE0202C09D12F
:100AE00053463A4649464046CDE90146009500F056
:100AF000F1F901E0BDE8FE8FBF1C08EB04001FFA0E
:100B000080F838780028C5D100BFF3E72DE9FF5FF2
:100B10000646894692469B460F9C0020039000960D
:100B20002046E21704EB5272D2102146E31704EB81
:100B30005373DB10A4EBC3030BB1012300E00023CC
:100B40001A44624392B2019205200290002579E096
:100B500005EB850000EBC5003D4911F810009AF83F
:100B6000001088426BD105EB850000EBC5003849C9
:100B700001EB400040789AF8011088425FD109EB00
:100B80000400401E83B23019401E82B249463046EE
:100B9000FFF746FD00274FE04FF0000846E01098B1
:100BA00008BB05EB850000EBC500294901EB4000BF
:100BB000801CC05D012101FA08F1084018B15846B7
:100BC00000F039FB02E00E9800F035FB0398401C62
:100BD000C0B20390039890FBF4F104FB110008BB32
:100BE0000020039025E005EB850000EBC5001849C7
:100BF00001EB4000801CC05D012101FA08F10840B2
:100C000020B15A4649463046FFF727FD701C86B290
:100C10000098301AA04205D1009E09F101001FFA88
:100C200080F906E008F1010000F0FF08B8F1080FB4
:100C3000B5DB00BF781CC7B201988742ACDB00BFB0
:100C4000681C85B20298854282DBBDE8FF9F0000E8
:100C5000FC2202082DE9FF5F0646894692469B4624
:100C60000F9C0020039000962046E21704EB52727E
:100C7000D2102146E31704EB5373DB10A4EBC3033C
:100C80000BB1012300E000231A44624392B20192A7
:100C900005200290002571E005EB05103A4911F896
:100CA00010009AF80010884265D105EB051036490E
:100CB00001EB400040789AF8011088425BD109EBC3
:100CC0000400401E83B23019401E82B249463046AD
:100CD000FFF7A6FC00274BE04FF0000842E0109819
:100CE000F8B905EB0510284901EB4000801CC05DF8
:100CF000012101FA08F1084018B1584600F09BFAAA
:100D000002E00E9800F097FA0398401CC0B20390DE
:100D1000039890FBF4F104FB1100F8B90020039054
:100D200023E005EB0510184901EB4000801CC05D75
:100D3000012101FA08F1084020B15A4649463046DF
:100D4000FFF78BFC701C86B20098301AA04205D1C8
:100D5000009E09F101001FFA80F906E008F1010088
:100D600000F0FF08B8F1080FB9DB00BF781CC7B26C
:100D700001988742B0DB00BF681C85B202988542AB
:100D80008ADBBDE8FF9F00007E2302082DE9FF5F9C
:100D90000646894692469B460F9C0020039000968B
:100DA0002046E21704EB5272D2102146E31704EBFF
:100DB0005373DB10A4EBC3030BB1012300E000234A
:100DC0001A44624392B2019205200290002579E014
:100DD00005EB850000EB45103D4911F810009AF82D
:100DE000001088426BD105EB850000EB45103849B7
:100DF00001EB400040789AF8011088425FD109EB7E
:100E00000400401E83B23019401E82B2494630466B
:100E1000FFF706FC00274FE04FF0000846E010986F
:100E200008BB05EB850000EB4510294901EB4000AC
:100E3000801CC05D012101FA08F1084018B1584634
:100E400000F0F9F902E00E9800F0F5F90398401C63
:100E5000C0B20390039890FBF4F104FB110008BBAF
:100E60000020039025E005EB850000EB45101849B4
:100E700001EB4000801CC05D012101FA08F108402F
:100E800020B15A4649463046FFF7E7FB701C86B250
:100E90000098301AA04205D1009E09F101001FFA06
:100EA00080F906E008F1010000F0FF08B8F1080F32
:100EB000B5DB00BF781CC7B201988742ACDB00BF2E
:100EC000681C85B20298854282DBBDE8FF9F000066
:100ED000282402082DE9FF5F0646894692469B4674
:100EE0000F9C0020039000962046E21704EB5272FC
:100EF000D2102146E31704EB5373DB10A4EBC303BA
:100F00000BB1012300E000231A44624392B2019224
:100F100005200290002571E005EB85103A4911F893
:100F200010009AF80010884265D105EB851036490B
:100F300001EB400040789AF8011088425BD109EB40
:100F40000400401E83B23019401E82B2494630462A
:100F5000FFF766FB00274BE04FF0000842E01098D7
:100F6000F8B905EB8510284901EB4000801CC05DF5
:100F7000012101FA08F1084018B1584600F05BF968
:100F800002E00E9800F057F90398401CC0B203909D
:100F9000039890FBF4F104FB1100F8B900200390D2
:100FA00023E005EB8510184901EB4000801CC05D73
:100FB000012101FA08F1084020B15A46494630465D
:100FC000FFF74BFB701C86B20098301AA04205D187
:100FD000009E09F101001FFA80F906E008F1010006
:100FE00000F0FF08B8F1080FB9DB00BF781CC7B2EA
:100FF00001988742B0DB00BF681C85B20298854229
:101000008ADBBDE8FF9F00009A2502082DE9FF4F0B
:1010100085B0074690461C46DDE91396304606EB40
:10102000D071C1F3470B2149404600F061FF0390A6
:1010300000F03EFF80B20490002531E0601B401EAE
:10104000C1B20A2000F0E4FC0499B1FBF0F00A21DF
:10105000B0FBF1F201FB120AA01EA84210D1002041
:10106000A11E01FB0B71CDE90096029088B22E22E1
:10107000129B0699FFF758FC681CC5B2601CC4B2ED
:1010800000200AF13001CAB205FB0B71CDE90096D0
:10109000029088B2129B0699FFF746FC681CC5B205
:1010A000A542CBDB09B0BDE8F08F00000000C842CC
:1010B0002DE9FF4F85B0074691461D46DDE913A691
:1010C00000200490304606EBD071C1F3470B00249A
:1010D00034E0281B401EC1B20A2000F099FCB9FB85
:1010E000F0F00A21B0FBF1F201FB12080498A0B95C
:1010F000681EA04211DDB8F1000F0CD1002004FBE6
:101100000B71CDE900A6029088B22022129B0699AD
:10111000FFF70AFC10E001200490002008F13001E4
:10112000CAB204FB0B71CDE900A6029088B2129BF3
:101130000699FFF7F9FB00BF601CC4B2AC42C8DBE4
:1011400009B0BDE8F08F00002DE9F05F0746884642
:1011500014461D46DDF828904FF0010A04FB05F007
:10116000460008EB0500401E83B23819401E82B2CB
:1011700041463846FFF754FA08211B48FFF74AFA60
:1011800029E04FF6FE70864202D9361A834602E005
:101190004FF0000AB3461FFA8BF34A46134914482E
:1011A00000F0A8F80122022110480C3800F08AF95A
:1011B0000F4800F0FDF809E04FF40070FFF720F948
:1011C00020B14FF40070FFF75BF800E0F4E700BFD8
:1011D0004FF6FE708144BAF1000FD2D108210248C7
:1011E000FFF71AFABDE8F09F000801400C300140FB
:1011F000300002402DE9FE4F06460F461446984641
:10120000DDE90D5ADDF8309010E0CDE9015ACDF856
:1012100000902278434639463046FFF785FB284642
:1012200005EBD07106EB61018EB2641C20780028BA
:10123000EBD1BDE8FE8F10B50446201200F01AF87D
:10124000E0B200F017F810BD10B50446204600F0DB
:1012500011F810BD10B5044604210548FFF7DAF96E
:10126000204600F007F804210148FFF7D5F910BD2A
:101270000008014010B5044608210B48FFF7CAF9E1
:1012800000BF0221094800F026F90028F9D02146C4
:10129000064800F029F9012000F079FA08210248F7
:1012A000FFF7BAF910BD000000080140003001400E
:1012B00008B50121052000F0A3F801210B48FFF734
:1012C00061F94FF40040ADF8000010208DF80300E4
:1012D00003208DF8020069460548FFF7C8F84FF46F
:1012E00000410348FFF798F908BD000000023000F4
:1012F000000801402DE9F04107460D4616461C4600
:101300000121084600F06CF83846FEF7D3FF0E487E
:1013100004800E480560466010200C49886008462D
:10132000C460002008618020486100208861C86195
:1013300008624FF480504862002088623846FFF708
:1013400075F8BDE8F08100001400002024000020A2
:101350002DE9F04107460D4616461C460121084678
:1013600000F03EF83846FEF7A5FF0F4804800F480E
:101370000560466010200D4988600846C460002062
:10138000086148614FF4807088618000C861002066
:1013900008624FF480504862002088623846FFF7A8
:1013A00045F8BDE8F0810000140000202400002072
:1013B00010B5044600212046FEF770FF044801885E
:1013C0000448FFF751F801212046FEF767FF10BDE2
:1013D000140000203000024000BFFEE77047704755
:1013E00029B1064A52690243044B5A6104E0034A98
:1013F00052698243014B5A6170470000001002405D
:1014000029B1064A92690243044B9A6104E0034AF7
:1014100092698243014B9A617047000000100240BC
:1014200000B587B001210803FFF7EAFF012104207E
:10143000FFF7E6FFA020ADF8180003208DF81A0092
:1014400018208DF81B0006A91648FFF710F8A021F8
:101450001448FFF7E1F84FF44040ADF804004FF4B2
:101460008270ADF806000020ADF808000220ADF84B
:101470000A000120ADF80C004002ADF80E00082073
:10148000ADF810000020ADF812000720ADF81400F0
:1014900001A9054800F02AF80121034800F006F8E8
:1014A00007B000BD000801400030014021B10288B2
:1014B00042F04002028004E002884FF6BF731A40F7
:1014C000028070471AB183880B43838002E08388CF
:1014D0008B43838070470246002013890B400BB179
:1014E000012000E0002070478181704710B5002284
:1014F000028802F441520B884C8823438C88234392
:10150000CC8823430C8923434C8923438C89234370
:10151000CC8923431A430280838B4FF2FF7423400C
:1015200083830B8A038210BD704710B500F002F868
:1015300010BD00000CB500200190009033480068F9
:1015400040F480303149086000BF3048006800F442
:10155000003000900198401C0190009818B9019843
:10156000B0F5A06FF1D12948006800F4003010B147
:101570000120009001E0002000900098012843D154
:101580002348006840F010002149086008460068C0
:1015900020F0030008600846006840F00200086080
:1015A0001A4840681949486008464068486008463B
:1015B000406840F4806048600846406820F47C1031
:1015C00048600846406840F4E810486008460068F3
:1015D00040F08070086000BF0C48006800F00070A8
:1015E0000028F9D00948406820F003000749486006
:1015F0000846406840F00200486000BF0348406869
:1016000000F00C000828F9D10CBD000000100240C9
:1016100000200240042808D14FF0E021096941F080
:1016200004014FF0E022116107E04FF0E021096969
:1016300021F004014FF0E022116170477047000073
:1016400010B51348006840F00100114908600846D1
:101650004068104908400E494860084600680E4935
:1016600008400B4908600846006820F480200860A4
:101670000846406820F4FE0048604FF41F00886070
:10168000FFF753FF4FF000600449086010BD0000F1
:10169000001002400000FFF8FFFFF6FE08ED00E03A
:1016A00010B540F225511D4800F03EF810B31B481C
:1016B00000F064F8C4B21A48008800F40040C8B9C9
:1016C0001748008800F4804060B10A2C03D0002045
:1016D0001349088020E01248008840F40040104977
:1016E000088019E00D2C06D10D48008840F4804098
:1016F0000B49088010E00A480088C0F30D00094932
:101700000C5407480088401C05490880084600889A
:10171000C72801DD0020088010BD0000003801400E
:10172000200000205000002070B502460024002355
:101730000025002040F66A16B14200D100BFC1F377
:10174000421501F01F03012606FA03F3012D02D111
:101750009689334006E0022D02D1168A334001E01B
:10176000968A33400C12012606FA04F41688344097
:1017700013B10CB1012000E0002070BD0146888843
:10178000C0F30800704700BFFEE700BF704700BF0E
:10179000011EA0F10100FBD17047000010B56FF0F1
:1017A0000400FFF737FF0A4800680A49B0FBF1F070
:1017B000094908700846007800EB4001C1EBC010F1
:1017C0004FF6FF7101EAC0000449088010BD000017
:1017D0000000002000127A001600002018000020EF
:1017E0000146114A12884A434FF0E0235A61002211
:1017F0009A611A46126942F001021A6100BF4FF065
:10180000E022106900F001021AB100F48032002ACF
:10181000F5D04FF0E022126922F001024FF0E023F0
:101820001A6100229A617047180000200EB54FF02F
:10183000000AFFF7B3FFFFF73BFDFEF7A7FF4FF6E8
:10184000FF70F0231A46002100900846FEF714FFAF
:1018500000205E490860B8E05D48F0231A46002188
:1018600000900846FFF770FC4FF47A70FFF7B8FF5E
:101870004FF6FF70F0231A46002100900846FEF74D
:10188000FBFE002020214FF6FF724FF47843CDE994
:10189000002102904FA20146FFF7F2F8002010212C
:1018A0004FF6FF724FF47843CDE9002102904CA22D
:1018B0002821FFF79FFC10204FF6FF714FF478426C
:1018C0000323CDE900210290F02228213020FFF7E8
:1018D000EFFB002010214FF6FF724FF47843CDE963
:1018E0000021029040A228215020FFF783FC102005
:1018F0004FF6FF714FF478420323CDE900210290A7
:10190000F02228218020FFF7D3FB002010214FF682
:10191000FF724FF47843CDE90021029032A22821D2
:101920005020FFF767FC002010214FF6FF724FF4A4
:101930007843CDE9002102902DA24621FFF75AFC01
:1019400010204FF6FF714FF478420423CDE90021B7
:101950000290524646218020FFF758FB504600F087
:101960007BFA0746274A284B00F090F8054600F01E
:101970005BF882464FF0000917E000240FE023488F
:1019800009EB8902782303EBC20104EB8402009087
:10199000D00028231A46FFF7D7FB601CC4B2062CE0
:1019A000EDDB09F1010000F0FF09B9F1030FE4DB01
:1019B0004FF47A70FFF714FF4FF6FF70F0231A46CA
:1019C000002100900846FEF757FE45E7BC01214282
:1019D000082D0008D6D0BEB0D4B0B5E7D7D30000EC
:1019E0004C43445F573A00004C43445F483A000080
:1019F000496E637265617365696E67204E756E3AF4
:101A000000000000295C8FC2F528BC3F8820000838
:101A100010B50246012000E050430B1EA1F1010465
:101A2000E1B2F9D110BD000021F00042A2F16052F4
:101A3000B2F5801F01F0004328BFD2F17F6C0BD9B3
:101A40005FEA001C43EAC20242EB507018BF7047C5
:101A500028BF20F001007047B2F5801FBCBF1846B8
:101A600070474FEA410C1CF5001F02D2084600F0F7
:101A700006BB70B500F0B2F800000089FFF7F6BFB2
:101A80004FF00040A0F580007047000010B591EACB
:101A9000030F48BF83F0004300F1FC80841A71EB10
:101AA000030C05D2121943EB0C03001B61EB0C0174
:101AB000DFF824E14FEA1154A4EB135C1EEA430F54
:101AC00018BF9EEA445F73D023EA0E03DCF1200EB8
:101AD00021EA045143F4801332D322FA0CFE10EBB6
:101AE0000E0023FA0CFE41EB0E01CCF1200E03FA9E
:101AF0000EFE10EB0E0051F10001B1F5801FCCF18C
:101B0000200E32D201EB045112FA0EF2BDE8104061
:101B100058BF7047401C38BF5FEA420218BF704789
:101B2000002814BF20F0010041F100014FEA4103F9
:101B300013F5001F38BF7047A1F1C04100F09CB8F9
:101B4000012A43EB0302ACF1200CDCF11F0E32BF83
:101B50004FF0000E23FA0CF310EB030041EB04519D
:101B6000B4EB115FD0D0A1EB045101F5801149080D
:101B70005FEA300001EB04510ED350F1000038BF92
:101B800012FA0EFE08D1BDE81040C9E7401C38BF6C
:101B90005FEA4202CAD1C3E7BDE810404FEA410301
:101BA00013F5001F38BF7047A1F1C04100F064B8C1
:101BB0009EEA445F08D011EA5E0FBDE8104004BF02
:101BC00001F0004100207047BDE8104070B500F002
:101BD00005F800BF64FBBE3E0000E0FF0EF1020E00
:101BE0002EF0030E5EF8046B364205D4012A43EB57
:101BF000030515F5001F12D8012841EB010C1CF557
:101C0000001F0CD80ED14FEAD17C15F5001F0CEB4C
:101C10004C0C0CF1020C08BF4CEBD37C04E04FF0F1
:101C2000080C01E04FEAD37C0CEB4C0526FA05F6D4
:101C300006F00706B6F1040C06D20EEB860CBDE8E2
:101C400070404CF0010C6047DFE80CF0090B020219
:101C50004FF000414FF00000A1F5002170BD194682
:101C60001046012851EB010418BFD4F5001484BFBD
:101C7000002001F0004170BD0808A0F500114FEAF6
:101C80003101704710B591EA030F48BF83F000435C
:101C90003FF504AF841A71EB030C07D212198CF0D4
:101CA000004C43EB0C03001B61EB0C01DFF8A4E1DB
:101CB0004FEA1154A4EB135C1EEA430F18BF9EEACF
:101CC000445F00F0B08023EA6E03524221EA0451DF
:101CD000C3EB6E0338BF5B1EDCF1200E25D322FA66
:101CE0000CFE10EB0E0043FA0CFE41EB0E01CCF1A2
:101CF000200E03FA0EFE10EB0E0051F10001CCF1A4
:101D0000200E29D412FA0EF201EB0451BDE8104066
:101D100058BF7047401C1CBFB2F1004F70470028ED
:101D20000CBF491C20F00100704712EB020E43EB80
:101D3000030218BF4FF0010E4EEA4202ACF1200C34
:101D4000DCF11E0E54D943FA0CFE10EB0E0051F1DB
:101D5000FF31CCF11E0ED5D50EF1010E12FA0EFE9A
:101D6000404141EB010101EB445C5FEA5C5C10D94E
:101D700010EBDE7001EB045138BFBEF1004FBDE83F
:101D8000104018BF704700280CBF491C20F001000C
:101D9000704730D24FEAD42C11F5001124F40064BE
:101DA0001BD0B1FA81F20B3AA41AA41ED2F120037F
:101DB000914030FA03F31943904001EBCC71002CB1
:101DC00001EB0451BDE81040A8BF704701F1C041CC
:101DD0004FF0000001F000417047B0FA80F310FAB4
:101DE00003F100D110BDE41A173C4805C90AE4E725
:101DF00001EB045110BD491001EB0451BDE8104046
:101E00004FEA300002E04FF0000170474A0008BF7F
:101E10000042F8D0B2F5001F28BF704701F0004122
:101E20004FF0000070479EEA445F07D011EA5E0F52
:101E3000BDE8104004BF002100207047BDE81040FD
:101E400070B5FFF7CBFE00BF40DFF63E83F00041E8
:101E5000104670470000E0FF43004FEAD30C4FEA02
:101E60003C0C43401FBF40070CF1605113F0FE4F84
:101E700070471CF0006F03D100200CF00041704748
:101E80000CF0004343EA507010B540EACC0000F07B
:101E9000B0F800BF000000924FEA0001FFF7ECBE6F
:101EA0004FF000414FF00000A1F500217047000005
:101EB000C10DD1F19E0206DB4FEA002343F000433F
:101EC00023FA02F07047004207D54FEA4001B1F112
:101ED000FE4F02D24FF00000704710B500F089F8B5
:101EE00049922480002070476FEA2000704700006C
:101EF0004FF47F0C1CEAD0121EBF1CEAD11392EAE9
:101F00000C0F93EA0C0F00F0478090EA010F48BFD6
:101F100042F480724FF0004C4CEA00204CEA012160
:101F200002EB0302A0FB0113A2F50002002918BF77
:101F300043F001035B0028BF4FEA330342EB224228
:101F40005FEA132C4CEBC2502EBFBCEB436FB2F5D3
:101F50007C0F70474FEA036CBCF1004F08BF20F0C4
:101F60000100B2F57C0F38BF70470BD582F0FF023D
:101F700012F5803FC8BF704700F1C040D8BF00F0E5
:101F80000040704700F5000C5FEA4C0C48BF7047FA
:101F9000B0F1C04000F073B890EA010F0CEAD11321
:101FA00048BF42F48072624538BF634504D280EA7C
:101FB000010000F00040704710B500F01AF800BFB3
:101FC0008900013E00F007B800F009B85FEA410C53
:101FD0005FEA1C6C08D080EA010000F050B85FEAAC
:101FE000400C5FEA1C6CF6D14FF00040A0F5800079
:101FF00070470EF1020E2EF0030E5EF8044B2442E1
:1020000004D44FEA4102B2F17F4F11D84FEA4003A6
:10201000B3F17F4F0CD80ED14FEAD07CB2F17F4F95
:102020000CEB4C0C0CF1020C08BF4CEBD17C04E027
:102030004FF0080C01E04FEAD17C0CEB4C0324FA82
:1020400003F404F00704B4F1040C06D20EEB840C84
:10205000BDE810404CF0010C6047DFE80CF00708C9
:1020600002024FF00040A0F5800010BD084642007B
:1020700018BFD2F1807288BF00F0004010BDFF2170
:1020800041EAD050C0057047FFFFFFFFFFFFFFFF91
:10209000FFFFFFFFFFFFFFFFFFFFFFFFFFFFFFFF50
:1020A000FFFFFFFFFFFFF7BEFFFFFFDEC6388C928A
:1020B0006B8E6B6E7C10AD96E73CFFFFFFFFFFFF62
:1020C000FFFFFFFFFFFFFFFFFFFFFFFFFFFFFFFF20
:1020D000FFFFFFFFFFFFFFFFFFFFFFFFFFFFFFFF10
:1020E000FFFFFFFFFFFFFFFFFFFFFFFFFFFFFFFF00
:1020F000FFFFFFFFFFFFEF5D9D15634F426C320A4C
:10210000298819461925214531E86B8EC638FFFF0D
:10211000FFFFFFFFFFFFFFFFFFFFFFFFFFFFFFFFCF
:10212000FFFFFFFFFFFFFFFFFFFFFFFFFFFFFFFFBF
:10213000FFFFFFFFFFFFFFFFFFFFFFFFFFFFFFFFAF
:10214000FFFFFFFFA53653104B1053514B0F3A6C56
:1021500031E92167192510E408A30062088352CBF6
:10216000D69AFFFFFFFFFFFFFFFFFFFFFFFFFFFF0D
:10217000FFFFFFFFFFFFFFFFFFFFFFFFFFFFFFFF6F
:10218000FFFFFFFFFFFFFFFFFFFFFFFFFFFFFFFF5F
:10219000E73C637063B37CB863F54311324D29EAC1
:1021A00021881926190519051104110410E400836A
:1021B00008A38C72FFFFFFFFFFFFFFFFFFFFFFFF82
:1021C000FFFFFFFFFFFFFFFFFFFFFFFFFFFFFFFF1F
:1021D000FFFFFFFFFFFFFFFFFFFFFFFFFFFFDEDB54
:1021E0003A4B42F06C354B5432B12A2E21EB21A9E7
:1021F00019671905110411041104110411041905BA
:1022000010E4004273AFFFFFFFFFFFFFFFFFFFFF80
:10221000FFFFFFFFFFFFFFFFFFFFFFFFFFFFFFFFCE
:10222000FFFFFFFFFFFFFFFFFFFFFFFFEF5D320933
:10223000324C4B10328F2A4F2A2E19CC1989218902
:10224000194719051104110410C410C41104110414
:10225000110410E400428431FFFFFFFFFFFFFFFF86
:10226000FFFFFFFFFFFFFFFFFFFFFFFFFFFFFFFF7E
:10227000FFFFFFFFFFFFFFFFFFFFFFFF52EC1947CC
:10228000324C2A0B21EC21EC220C5B914AEE110618
:102290001926190410E410E429A7216608A31905DA
:1022A0001104110410E40082BDF7FFFFFFFFFFFFE0
:1022B000FFFFFFFFFFFFFFFFFFFFFFFFFFFFFFFF2E
:1022C000FFFFFFFFFFFFFFFFFFFFA535088321880A
:1022D0002188218921AA218A426B8C71FFFF8C728F
:1022E0000883110408C44229DEFBEF5D5AEC088321
:1022F000110411041104088331E8FFDFFFFFFFFF21
:10230000FFFFFFFFFFFFFFFFFFFFFFFFFFFFFFFFDD
:10231000FFFFFFFFFFFFFFFFF7BE31C710C4192506
:1023200019261947194729A8528A4A28AD55FFFF8F
:1023300031E808A319056B4D6B4DFFFFEF7D21457B
:1023400010C41104110411040062AD76FFFFFFFFF9
:10235000FFFFFFFFFFFFFFFFFFFFFFFFFFFFFFFF8D
:10236000FFFFFFFFFFFFFFFFB59600621104190496
:102370001105190508C44A8BB5B6EF5DBDF7FFFF1F
:102380006B8E006242295AAA4208FFFFFFFF52CC1F
:10239000088311041104110408A352ADFFFFFFFFCD
:1023A000FFFFFFFFFFFFFFFFFFFFFFFFFFFFE71C38
:1023B000FFFFFFFFFFFFFFFF634E006211041104E8
:1023C000110410E40062638EFFFFFFFFFFFFFFFFB9
:1023D00073CF00019CF3632CB596FFFFFFFF5B2DCD
:1023E000008311041104110410E42167EF3DFFFF85
:1023F000FFFFFFFFFFFFFFFFBDF8B5B7EF9E52CB1A
:1024000094B3FFFFFFFFFFDF31E808A311041104BD
:102410001104110408A34249F7FFF7FFFFFFFFFF74
:102420004A6A00018472FFFFFFFFF7FFEFDF3A09FE
:1024300008A311041104110411041105BE18FFFFB3
:10244000FFFFFFFFFFFFFFFF7BF0006231E831C7B6
:102450000041A535FFFFEF5D214610C411041104B2
:102460001104110410E408A39D76F7FFFFFFADB738
:1024700008A308A331C7E79EF7FFF7FFA57608A3D7
:1024800010E411041104110411051105A535FFFF15
:10249000FFFFFFFFFFFFFFFFDEDB29A7008310C464
:1024A00010C410C4E71CEF9E110510E411041104C0
:1024B00011041104190408C410E56BD16BD108C5CF
:1024C000006408A50043322B9D7784B3192510C4FE
:1024D0001104110411041104192509269D35FFFF6B
:1024E000FFFFFFFFFFFFFFFFFFFF73AF0062190455
:1024F000190500825B0D9B8E1062110511041104F9
:10250000190410E40085110539C45A817B409C22CE
:10251000AC43A4039B837282498218C200A400C505
:1025200010E4190411041905194711675AECFFBE8C
:10253000FFFFFFFFFFFFFFFFFFDFDEDB10C410E444
:102540001104110518A4C001888300E419051904B9
:1025500008C521448343D523FE42FEE4FF27FF073D
:10256000FEA4FE64FE03FDA3FCE2EC42B3836224FE
:1025700010E508C41904192619A821879000BCD3B6
:10258000FFFFFFFFFFFFFFFFFFDFFFFF7C100042A9
:10259000190511052883D001F84448A300E408C5B3
:1025A0005A44ED02FDE2FE02FE66FF74FFB8FF73BF
:1025B000F6E7F6A6F645F5A4FCC3FC62FCC2FCC235
:1025C000CBE349C411061988018790A4F8019AEC5D
:1025D000FFFFFFFFFFFFFFFFFFFFFFFFF7BE31E839
:1025E000008309054082C001F823F08548A300A4B8
:1025F0005A44FD02CC23DCC2FE04FE28F648F6460F
:10260000F624F5E4FD64FCE3FC62FCC2E402DC02B7
:10261000FCE27AA40148016778C4F824F802B08487
:10262000E77DFFFFFFFFFFFFFFFFFFFFFFFFDEDB99
:10263000192500A338C4E002D822F844F8A678A4EB
:1026400000632143728339839B82F521FD61FD2262
:10265000FCE2FCA2FC42FC42FC42AB22418392C35E
:1026600052040126192598A4F844F823F802D0A4AE
:10267000EF9EFFFFFFFFFFFFFFFFFFFFFFFFFFFFDB
:10268000D69A298700A5B843F822E023F865F8E830
:10269000C9074883004200A3008429637AA2B36279
:1026A000CBA2D362BB028A82398300A400E500E595
:1026B00008E560C4D864F844F824F823F802888355
:1026C000C6DBFFFFFFFFFFFFFFFFFFFFFFFFFFFF77
:1026D000FFFFE73D5B503108E823F843F044F8651D
:1026E000F909F9ABD189890648A3184200020042D2
:1026F0000061008200620062008320A350C488A5AC
:10270000D885F865F844F844F823F823D0031082FC
:1027100029C7EF5DFFFFFFFFFFFFFFFFFFFFFFFF89
:10272000FFFFFFFFFFFF326C38A5D802F823F865E2
:10273000F866F8A7F94AFA0CFA4DEA4CD20BB9A997
:10274000B168A947B127B907D107E8E7F8C7F8A7E3
:10275000F865F865F844F823F803D00228A30905C2
:1027600008C45AECFFFFFFFFFFFFFFFFFFFFFFFF63
:10277000FFFFFFFFDEFB190500C441A7C0E6F80319
:10278000F886F8A7F887F886F8C7F929F98AF9AB27
:10279000F9ABF98BF96AF929F908F8C7F8A6F886B0
:1027A000F865F864F823F002B106292500E410E486
:1027B000192519259D14FFFFFFFFFFFFFFFFFFFFF6
:1027C000FFFFFFFFAD96006208829535CEBAA28B5F
:1027D000D044F825F887F8A7F8C7F8A7F887F8864F
:1027E000F886F886F887F8A7F8A7F8A6F885F865B8
:1027F000F864F024B864930DB6BB63CF088311046A
:1028000010E421663A49EF5DFFFFFFFFFFFFFFFF86
:10281000FFFFFFFF94D3004210E4CEBBFFFFE7BEF3
:10282000B576AACCC107E045F845F846F866F886C3
:10283000F886F886F886F865F845F865E865D044C6
:10284000A84388019082D73CEFFF95550883110477
:1028500011041905194694B3FFFFFFFFFFFFFFFFA7
:10286000FFFFFFFF94B300412186DF5DFFFFFFFF05
:10287000FFFFE7DFC67AB4D3B34EC22AD168E0E6E1
:10288000E8A6E8A5E8A5D8E6C988A906A822A8026E
:10289000A000C800D800E5F7E7FFADF810C410E4C9
:1028A000110410E411054A8BFFFFFFFFFFFFFFFF3C
:1028B000FFFFFFFFA555004129A7DF5DF7FFFFFFE1
:1028C000FFFFFFFFFFFFFFFFEFFFDF7DCEDBCE59F6
:1028D000CDF8CDD7C5F7CE79BEFBA2ABF003F84556
:1028E000D042E843F000D472DFFFAE3910E410E4C8
:1028F000110410E411052987FFFFFFFFFFFFFFFF11
:10290000FFFFFFFFCE5908832146D71CF7FFFFFFCB
:10291000FFFFFFFFFFFFFFFFFFFFFFFFFFFFFFFFC7
:10292000FFFFFFFFFFFFFFFFEFFFBA8BF804F84543
:10293000E062F044F800DB8EDFFFA5F810C410E47D
:1029400010E4110410E41925FFFFFFFFFFFFFFFF54
:10295000FFFFFFFFF7BE29870883B639F7FFF7DFD0
:10296000FFFFFFFFFFFFFFFFFFFFFFFFFFFFFFFF77
:10297000FFFFFFFFFFFFFFFFE7BEBA4AF803F8457E
:10298000F864F844F800E36ED7FF8CF40883110470
:1029900010E410E410E41905FFFFFFFFFFFFFFFF45
:1029A000FFFFFFFFFFFF73EF00008472EFFFEFBE3A
:1029B000FFDFFFFFFFFFFFFFFFFFFFFFFFFFFFFF47
:1029C000FFFFFFFFFFFFFFFFE7DFBA8BF803F845CC
:1029D000F845F823F800D4D3D7FF5B4E00213A29FD
:1029E000A555088310C41925FFFFFFFFFFFFFFFF58
:1029F000FFFFFFFFFFFFDEFB08A331E8DF9EE79E3E
:102A0000EFBFFFFFFFFFFFFFFFFFFFFFFFFFFFFF26
:102A1000FFFFFFFFFFFFFFFFF7FFBC51E002F803DE
:102A2000F003E043C2ECCF7EBEFC2146002194D3EC
:102A3000FFFF845100002987FFFFFFFFFFFFFFFF1B
:102A4000FFFFFFFFFFFFFFFF845100008CF4EFFF4B
:102A5000E79EEFBFFFDFFFFFFFFFFFFFFFFFFFFF6F
:102A6000FFFFFFFFFFFFFFFFFFFFDF3DBD55BC5234
:102A7000BC72B5B7C75DDFFF6BF000003A09F7BF66
:102A8000FFFFFFFF9D14A555FFFFFFFFFFFFFFFFA7
:102A9000FFFFFFFFFFFFFFFFFFFF4AAC08A4BEBB25
:102AA000E7DFE77EEFBEF7DFFFDFFFFFFFFFFFFFA0
:102AB000FFFFFFFFFFFFFFFFFFDFF7DFEFFFDFDFBE
:102AC000D7BFD79EDFDFA5D808831126D6DBFFFF4F
:102AD000FFFFFFFFFFFFFFFFFFFFFFFFFFFFFFFF06
:102AE000FFFFFFFFFFFFFFFFEE79DC8B312121A904
:102AF000CF3DDFBFDF7EE79EEFBEEFBFF7DFF7DF43
:102B0000F7DFF7DFF7DFEFBFEFBEE79EDF7ED75ED1
:102B1000D75EDFDFB69A19260842A3EDFFBFFFFF9D
:102B2000FFFFFFFFFFFFFFFFFFFFFFFFFFFFFFFFB5
:102B3000FFFFFFFFFFFFDD74DBC0FE00EE4242023D
:102B40002189B67BDFDFD77EDF7EDF7EE79EE79ED3
:102B5000E79EE79EE79EDF7EDF7ED75DD75DDF9E47
:102B6000E7FFA5F8110718E3C502FD60D3E6EEDB29
:102B7000FFFFFFFFFFFFFFFFFFFFFFFFFFFFFFFF65
:102B8000FFFFFFFFF79EBA84FCC1FE42FE82FEA259
:102B9000838121457474C75EDFDFD77ED75ED75D42
:102BA000D75ED75ED75DD75DD75EDF9EE7FFC73DB7
:102BB00063F108845242E626FF29FE86F3E0C36AE9
:102BC000FFFFFFFFFFFFFFFFFFFFFFFFFFFFFFFF15
:102BD000FFFFFFFFDE18D2C1FDA2FE22FE42FE4231
:102BE000FE62D4E26A4142497453A63BC73ED7BF56
:102BF000D7BFD7BFDFBFD7BFC73EA61A63F229A78B
:102C00004182B422FE62FE83FEAAFF0FFD67BA6313
:102C1000EF3CFFFFFFFFFFFFFFFFFFFFFFFFFFFF97
:102C2000FFFFFFFFE69AD280FD21FDC2F5E2F5C26B
:102C3000F582FD82FD62DC619B216A846AE9632C76
:102C400063AF7411636E632C5A8952047A81CBC2CC
:102C5000FCE2FD62FD82FDC2FDC2FDE4FD24CA620C
:102C6000E71CFFFFFFFFFFFFFFFFFFFFFFFFFFFF6F
:102C7000FFFFFFFFFFFFCCB1D281F3C0FCC1FD021B
:102C8000FD02FCE2FCC2FCC2FC81FB80C9C081A445
:102C9000AD35CE599C718121DA00FBA1FC82FCA2EA
:102CA000FC82FCA2FD02FD22FCE2FC00DA60CC907A
:102CB000FFFFFFFFFFFFFFFFFFFFFFFFFFFFFFFF24
:102CC000FFFFFFFFFFFFFFFFDE59C40DCB06D2E47D
:102CD000DB03DB03DAE3D2C3C2A4B309BCD2F79EA1
:102CE000FFFFFFFFFFFFE6FBB40EBAA6D283E2E3CD
:102CF000EB02EB22E322DB03D2E4C36AD5B6FFFF8B
:102D0000FFFFFFFFFFFFFFFF288528852885288517
:102D10002885288530653065308630863086308657
:102D200030863086308630863886388638863886D3
:102D300038863886388638863086308630863086C3
:102D400030863086308630863087308730873067EF
:102D500030673066306630662866286628662866E2
:102D60002866286628662066206618661867186632
:102D70001867186718671867186718871068106849
:102D80001068106810681068106810681068106883
:102D90001068106810681068106810681068106873
:102DA0001068106810681068106810681068106863
:102DB00010681068106810691889188918891889AE
:102DC00018891889188918891889188918891889FB
:102DD00020892089208920892089208920892089AB
:102DE000208920892089208920892089208920899B
:102DF000288928892889288928892889288928AA2A
:102E0000288A288A28AA28AA30AA30AA30AA30AA52
:102E100030AA30AA30AA30AA30AA30AA30CA30CAA2
:102E200030CA38CB38CB38CA30CA38EA38EA38EA40
:102E300038EA38EA38EA38EA38EA38EB38EB38EB7F
:102E400040EB40EB40EB40EB40EB40EB40EB410B09
:102E5000410B410B490B490B490B490C490B492BC1
:102E6000492B492B492B492B492C492C492C492CBE
:102E7000492C492C492C492C492C492C492C492CAA
:102E8000492C492C492C492C512C512C512C512C7A
:102E9000512C512C512C512C514C514C514C514CCA
:102EA000514C514C514D514D494C494C494C494C58
:102EB000514D514D514D514D516D516D514D516DC2
:102EC000516D516D516D516D516D516D516D516D12
:102ED000516D516D516D516D514D516D516D516D22
:102EE000516D516D516D516D288528852885288536
:102EF0003085308530853085308630863086308626
:102F00003086308630863086308630863086308611
:102F10003086308630863086308630863086308601
:102F200030863086308630863887308730873087E5
:102F300030873087308730873087308730873087D9
:102F400030872867286728872067208720672067C1
:102F500020671867186718671887188718881888EF
:102F60001888188818881888188818881888186881
:102F70001868106810681068108810691069106966
:102F8000106910691068106810891068106810685E
:102F900010681069106918891889188918691889C2
:102FA00018891889188918892089208920892089F9
:102FB00020892089208920892089208920892089C9
:102FC00020892089288920892089208920892889A9
:102FD00028A928A928A928A928AA28AA28AA28AA65
:102FE00028AA28AA28AA30AA30AA30AA30AA30AA29
:102FF00030CA30CA30CA30CA30CA30CA30CA30CA01
:1030000030CA38CB38CB38CB38EA38EA38EA38EA35
:1030100038EA38EA38EB38EB38EB38EB38EB38EB9A
:1030200040EB40EB410B410B40EB40EB40EB410BE5
:10303000410B410B410B410B490B490B490C490B0F
:10304000492C492B492B492B492C492C492C492CDB
:10305000492C492C492C492C492C492C492C492CC8
:10306000494C494C494C494C492C492C512C492C30
:10307000512C514C512C514C514C494C514C494CB8
:10308000514C514C514D516D514D514D514D514D32
:10309000514D516D516D516D516D516D516D516D60
:1030A000516D516D598D598D598D598D598D598D40
:1030B000598D518D518D518D516D518D598E598E26
:1030C000518E518E518E518D2885288528852885D1
:1030D0003085308530863086308630863886388632
:1030E0003886388638863886308530853085308514
:1030F0003086308630863086308630863086308620
:103100003086308630863086388730873087308703
:1031100030873087308730873087308730873087F7
:10312000308730873087308728872887288720870F
:10313000206720672067206720672067206818685D
:1031400018681868186818681888188818881888FF
:1031500018881888188818881888186818681868CF
:10316000188818881868186818891889188818889D
:103170001888188918891889188918891889188948
:103180001889188920892089208920892089208907
:1031900020892089208920892089208928892889D7
:1031A000288928A9288928A9288928A928A928AAF6
:1031B00028AA28AA28AA28AA28AA28AA28AA28AA7F
:1031C00030AA30AA30AA30CA30CA30AA30AA38CAC7
:1031D00038CA38CB38CB38CB38CB38CB38CB38CBD8
:1031E00038CB38CB38CB38CB38EA38EA38EB38EB49
:1031F00038EB38EB38EB38EB38EB38EB38EB390B96
:10320000410B410B410B410B410B410B410B410B5E
:10321000410B410C410C410C410B410C410C410C48
:10322000492C492C492C492C492C492C492C492CF6
:10323000492C492C492C492C494C494C494C494C66
:10324000494C494D494D514D514D514D514D514DA7
:10325000514D514D514D514D514D494D514D494D8E
:10326000514D516D514D516D516D516D516D516DAE
:10327000516D516D516D516D516D516D516D516D5E
:10328000516D598D598D598D598D598D598D598D36
:10329000598D598D598D518D598D598D598E59AEE4
:1032A00059AE59AE598E598E28852885288528858E
:1032B0003085308530863086308630863886388650
:1032C0003886388638863886308530853085308532
:1032D000308630863086308630863086306630865E
:1032E000308630863086308630873087308730872A
:1032F0003087308730873087308730873087308716
:1033000038873887388730A730A830A830A830A849
:103310003088288728882888288828682068206896
:103320002068206820682068206820682068188845
:10333000208820882089208918881888188818688B
:1033400018691888186918891889188918891889B6
:103350001889188918891889208920892089208945
:103360002089208920A920892089208920892889ED
:1033700028892889288928892889288928892889C5
:103380002889288A288A28AA28AA28AA28AA28AA0E
:1033900028AA28AA28AA28AA28AA28AA30AA30AA8D
:1033A00030AA30CA30CA30CA30AA30AA30AA38CAC5
:1033B00038CA38CB38CB38CB38CB38CB38CB38CBF6
:1033C00038CB38CB38CB38CB38EB38EB38EB38EB65
:1033D00038EB38EB38EB38EB38EB38EB390B410B8B
:1033E000410B410B410B410B410C410C410C410B7A
:1033F000410C410B410C412C410C410C410C412C26
:10340000412C412C412C412C492C492C492C492C34
:10341000492C494C492C494C494D494C494D494C42
:10342000494D494D494D494D516D516D516D516D4C
:10343000516D516D516D516D496D496D496D496DBC
:10344000496D516D516D516D516D516D516D516D94
:10345000516D516D518D518D518D518D516D598DD4
:10346000598D598D598D598D598D598D598D598D2C
:10347000598D598D598E598D59AE59AE59AE59AE97
:1034800059AE59AE59AE59AE28852885308530855C
:103490003085308530853085388638863886388660
:1034A000388638863886388638863886388638862C
:1034B00038863886388638863066306630663066BC
:1034C0003066306630663066306730673067308728
:1034D0003087308730873087308730873887388724
:1034E000388738873887388738A838A838A838A860
:1034F000388838A83088308830A830A830A830887C
:1035000030882888288828882068206820682068D3
:1035100020682068206820682089208920892089E7
:103520002089208920892089208920892089208953
:103530002089208920892089208920892089208943
:1035400020A920A920A920A9288928892889288993
:10355000288928A928A928A928892889288930A95B
:1035600030A930A930AA30AA30A928A928A928AAA8
:1035700030AA30AA30AA30AA30AA30AA30AA30AA7B
:1035800030AA30CA30CA38CA30CA30CA30CA38CA7B
:1035900038CA38CA38CA38EB38CA38CA38CA38EBD9
:1035A00038EB38EB38EB38EB38EB38EB38EB38EB03
:1035B00038EB38EB38EB38EB38EB390B390B390B90
:1035C000410B410B410B410B410C410C410C410C97
:1035D000410C410C410C412C410C412C412C412C03
:1035E000412C412C412C412C412C412C492D494C42
:1035F000492D494D494D494D492D494C494D494D5C
:10360000494D494D494D494D494D494D494D494D0A
:10361000494D494D496D496D496D496D496D496D3A
:10362000496D496D496D518D516D516D516D516DA2
:10363000516D518D518D518D518D518D598D598EA9
:10364000598D59AD59AD59AD59AE59AE59AE59AE66
:1036500059AE59AE59AE59AE59AE59AE59AE59AE32
:1036600059AE59AE59AE59CE30853085308530854A
:10367000308530853085308538863886388638867E
:10368000388638863886388638863886388638864A
:1036900038863886388638863066306630663886B2
:1036A00038863886386638663067306730873087C6
:1036B000308730873087388738873887388738872A
:1036C00038873887388738874088408838883888EE
:1036D0003888388838883888388838A838893889C8
:1036E00038A938A930A930A930892889288928889B
:1036F0002889288828682868288928892889288985
:103700002889288928892889288928892889288931
:103710002889208920892089208920892089208959
:103720002089288928892889288930893089308901
:10373000308930893089308930AA30AA30AA30AA3D
:1037400030AA30AA30AA30AA30AA30AA30AA30AAA9
:1037500030AA30AA30AA30AA30AA30AA30CA30CA59
:1037600030CA38CA38CA38CA38CA38CA38CA38CA51
:1037700038EB38EB38EB38EB38CA38CA38EB38EB73
:1037800038EB38EB38EB38EB38EB38EB38EB38EB21
:10379000390B390B390B390B390B390B390B390B09
:1037A000410B410B410B390B410C410C390C390CCD
:1037B000390C410C410C410C410C412C412C412C49
:1037C000412D412C412D412C412C412C412D414D6D
:1037D000494D414D494D414D412D414D412D414DA9
:1037E000494D494D494D494D494D494D494D494D29
:1037F000494D494D494D496D496D496D496D496D79
:10380000496D498D498E498D518D518D518D518D07
:10381000518D518D518D518D518D518D518D518DB8
:10382000518D518D518D518D518E59AE59AE59AE2C
:1038300059AE59AE59AE51AE51AE51AE51AE51AE78
:1038400051AE59AE59AE51AE30A630A6308630A634
:103850003086308638863886388638863886388688
:103860003886388638863886388638863886388668
:103870003886388638863886388638863886388757
:103880003887388738873887388738873887388740
:103890003887388738873887388738873887388730
:1038A0003887388738873887408740874087408700
:1038B0003888388838883888388838883888388808
:1038C0003888388938A938A938A938A930A930A941
:1038D00030A930A930A930893089308928892888D1
:1038E000288928882889288928A928A930A930A9C1
:1038F000288928A928892889288928892889288920
:10390000288928A928A930A93089308930893089A7
:10391000308930893089308930AA30AA30AA38AA53
:1039200038AA38AA38AA38AA38AA30AA30CA30CA5F
:1039300038CA38CA38CA38CA38CA38CA38CA38CA77
:1039400038CA38CA38CA38CA38CB38EB38EB38EB03
:1039500038EB38EB38EB38EB38EB38EB38EB38EB4F
:1039600038EB38EB40EB38EB38EB38EB38EB38EB37
:1039700038EB390C390C390C390C390C390C390C41
:10398000390C390C390C390C410C390C390C390C07
:10399000390C390C390C392C410C392C412C412C67
:1039A000412D412C412D412C412C412D412D412DAA
:1039B000412D412D412D414D412D412D412D414D57
:1039C000412D414D414D414D414D414D414D414DA7
:1039D000414D414D414D414D496D416D496D416DE7
:1039E000496D496D496D496D496D496D498D498DE7
:1039F000498D498D518D518D496D498D496D518D3F
:103A0000518D518D518D518D518D518D518E518EC4
:103A1000518E51AE518E518D518E518E518E518E8F
:103A2000518E518E518E51AE308630A630A630A6C2
:103A300038A638A638A638A6388638863886388616
:103A40003886388638A638A6388638863886388646
:103A5000388638863886388638A738A738A738A7F2
:103A600038A738A738A738A7388738A738A738A77E
:103A7000388738873887388738873887388738874E
:103A800040874087408840884087408740874087FC
:103A900040884088408840884088408838883888F6
:103AA00038883888388838893889388938A938A9D1
:103AB00038A938A938A938A938893889308930898E
:103AC000308930893089308930A930A930A930A9AE
:103AD00030A9308930893089308930A930A930A99E
:103AE00030A930A930A930A9308938893889388976
:103AF000388A388A388A388A38AA38AA38AA38AA36
:103B000038AA38AA38AA38AA38AA38CA38CA38CA45
:103B100038CA38CA38CA38CA38CB38CB38CB38CA92
:103B200038CA38CA38CA38CA38EB38EB38EB38EB01
:103B300038EB38EB38EB38EB38EB38EB38EB38EB6D
:103B400038EB38EB38EB38EB38EB38EB38EB38EB5D
:103B5000390C390C390C390C38EB390C390C390C5F
:103B6000390C390C390C390C390C390C390C38EC4E
:103B700038EC390C390C390C390C390C390C390C3E
:103B8000392C392C392C392C412C412C412C412CED
:103B9000412C412C412D412D412D412D414D414D77
:103BA000414D414D414D414D414D414D414D414DA5
:103BB000414D414D414D414D414D414D414D414D95
:103BC000414D416D416D416D496D496E496E496E82
:103BD000498E498D496D496D498E498E498E498E70
:103BE000498E498E498E498E51AE51AE51AE51AE7D
:103BF00051AE51AE51AE51AE518E498E498E498E65
:103C0000498E518E518E49AE30A630A630A63886E8
:103C100038863886388638863886388638863886B4
:103C2000388638A638A638A638A638A638A638A6C4
:103C300038A638A638863886388738873887388750
:103C400038A738A738A738A738A738A738A838A87A
:103C500040A840A840A840A84088408840884088A4
:103C60004088408840884088408840884088408814
:103C70004088408840A840A83888388840883888DC
:103C8000388840A840A838A9388938A938A938A95F
:103C900038A938A938A938A938A938A938A938A91C
:103CA00038A9388938893089388938A938A938A994
:103CB00038A938A930A9308930A930A930A930A94C
:103CC00030A930A938A938A938A9388938AA38AA1A
:103CD00038AA38AA38AA38AA38AA38AA38AA38AAD4
:103CE00038AA38AA38AA38AA38AA38CA38CA38CB63
:103CF00040CB38CB38CB40EB40EB40EB40EB40EBDC
:103D000040EB40EB40EB40EB38CB38EB38EB38EB9B
:103D100040EB40EB410B410B410B410B410B40EBA6
:103D200040EB40EB40EB40EB38EC38EC410C410C05
:103D3000410C410C410C410C410C410C412C412CDB
:103D4000412C412C412C412C410C390C390C390CA3
:103D5000390C390C390C390C392C392C392D392DB9
:103D6000392D392D392D392D412D412D412D412D03
:103D7000412D412D412D412D414D414D414D414D53
:103D8000414D414D414D414D394D414D414D416DAB
:103D9000416D416D416D414D416D416D416D416DD3
:103DA000416D416D416D416D498E498E496E498E1F
:103DB000498E498E498E498E498E498E498E49AE2B
:103DC00049AE49AE49AE49AE51AE51AE51AE51AE1B
:103DD00051AE51AE51AF51AF49AE49AE49AE51AF00
:103DE00051AF51AF51AF49AF38A638A638A638A663
:103DF00038863886388638863886388638863886D3
:103E000038863886388638863886388638863886C2
:103E100038863886388638863887388738873887AE
:103E2000388738873887388738873887388738879A
:103E30003888388840884088408840884088408852
:103E40004088408840884088408840884088408832
:103E5000408840884088408838884088408840882A
:103E6000388838883888388840A938A9408938A9DE
:103E700040A940A940A940A940A938A940A938A90A
:103E800038A938A93889388938A938A938A938A96A
:103E900038A938A93889388938893889388938A9BA
:103EA00038A938A938A938A938AA38AA40AA40AAF6
:103EB00040AA40AA40AA40AA38AA38AA38AA38AAD2
:103EC00038AA40AA40AA40AA40CB40CB40CB40CB26
:103ED00040CB40CB40EB40EB40EB40EB40EB40EBCA
:103EE00040EB40EB40EB40EB38EB38EB40EB40EB8A
:103EF00040EB410B410B410B410B410B410B410B83
:103F0000410B410B410B410B410C410C410C410C4D
:103F1000410C410C410C412C412C412C412C412C99
:103F2000412C412C412C412C412C412C412C412C29
:103F3000412C392C392C412D412D412D412D412D24
:103F4000412D412D412D414D412D412D414D414DA1
:103F5000414D414D414D414D414D414D414D414DF1
:103F6000414D414D414D416D416D416D416D416D41
:103F7000416D416D416D416D416D416D416D416DD1
:103F8000496E496E496E496E416E416E416E416E99
:103F9000418E498E498E49AE498E498E498E498E51
:103FA00049AE49AE49AE49AE51AF51AE51AF51AF36
:103FB00051AF51AF51AF51AF51CF51CF51CF51CF81
:103FC00051CF51CF51CF51CF38A638A638A638A6F9
:103FD00038A638A6388638863886388638863886B1
:103FE00038863886388638863886388638863886E1
:103FF00038863886388638863886388738873887CE
:1040000038873887388738873887388840884088A5
:1040100040884088408840A8408840884088408840
:104020004088408840884088408840884088408850
:104030004088408840884088408840883888388850
:10404000388838883888388840A940A9408940A9EC
:1040500040A940A940A940A940A940A940A940A918
:1040600040A940A940A940A938A938A938A938A928
:1040700038A938A938A938A938A938A938A940A930
:1040800040CA40CA40CA40CA40CA40CA40CA40CAE0
:1040900040CA40CA40CA40CA40CA40CA40CA40CAD0
:1040A00040CA40CA40CA40CA40CB40EB40EB40EB5C
:1040B00040EB40EB40EB40EB40EB40EB40EB40EBA8
:1040C00040EB40EB40EB40EB40EB40EB40EB410B77
:1040D000410B410B410B410B410C410C410C410C7C
:1040E000410C410C410C410C410C410C410C410C68
:1040F000412C412C412C412C412C412C412C412C58
:10410000412C412C412C412C414D414D412C412C05
:10411000412D412D412D412D412D412D414D414DEF
:10412000414D414D414D414D414D414D414D414D1F
:10413000414D414D414D414D416D416D416D416D8F
:10414000416D416D416D416D416D418E418E418E9C
:10415000418E418E418E416D498E498E498E498EE8
:10416000498E498E498E498E498E498E498E498E97
:10417000498E498E49AE49AE49AE49AE49AE49AEC7
:1041800049AF49AF51AF51AF51AF51AF51AF51AF3F
:1041900051AF51AF51AF51AF51AF51AF51CF51CFDF
:1041A00051CF51CF51CF51CF38A638A638A638A617
:1041B00038A638A640A640A640864086388638866F
:1041C00038863886388638863886388638863886FF
:1041D00038863886388638863887388738873887EB
:1041E00038873887388738874088408840884088B3
:1041F0004088408840A840A840884088408840883F
:10420000408840884088408840A840A840A840A8EE
:1042100040A840A840A840A840A840A840A840A85E
:1042200040A840A840A840A84089408940894089CA
:1042300040A940A940A940A940A940A940A940A936
:1042400040A940A940A940A940A940A940CA40CAE4
:1042500040CA40CA40CA40CA40CA40CA40CA40CA0E
:1042600040CA40CA40CA40CA48CA48CB48CB48CBDB
:1042700048CB48CB48EB48EB48EB48EB48EB48EBE6
:1042800048EB48EB48EB48EB40EB40EB40EB40EBB6
:1042900040EB40EB40EB40EB40EB40EB40EB40EBC6
:1042A00040EB410B410B410B410B410B410B410CCE
:1042B000410C410C410C410C410C410C410C410C96
:1042C000492C492C492C492C492C492C492C492C46
:1042D000492C492C492C492C492C492C492C494D15
:1042E000494D494D494D494C494D494D494D414D27
:1042F000414D414D414D414D414D414D414D414D4E
:10430000414D414D414D414D414D414D416D416DFD
:10431000416D416D416D416D416D416D416D416E2C
:10432000416E416E416E416E416D418D418E418EB7
:10433000418E418E418E418E498E498E498E498EE5
:10434000498E498E498E498E49AE49AE49AE49AE35
:1043500049AE49AE49AE49AE51AE51AE51AE51AF84
:1043600051AF51CF51CF51CF51AF51AF51AF51AFED
:1043700051AF51AF51AF51AF51CF51CF51CF51CFBD
:1043800051CF51CF51CF51CF38A638A638A638A635
:1043900040A640A6408640863886408640864086B5
:1043A00040A640A640A640A640A640A640A640A6DD
:1043B00040A740A740A740A738873887388740875D
:1043C00040874087408740874087408740874088B4
:1043D000408840884088408840884088408840889D
:1043E000408840884088408840A840A840A840A80D
:1043F00040A840A840A840A840A840A840A840A87D
:1044000040A940A940A940A940A940A940A940A964
:1044100040A940A940A940A940A940A938A938A964
:1044200038A940A940A940A940A940A940A940C92C
:1044300040CA40CA40CA48CA48CA48CA48CA48CA04
:1044400048CA48CA48CA48CA48CA48CA48CA48CADC
:1044500048EB48EB48EB48EB48EB48EB48EB48EBC4
:1044600048EB490B490B490B40EB40EB40EB40EB71
:10447000410B410B410B410B410B410B410B410BDC
:10448000410B410B410B412C410B410B410B410CAA
:10449000410C410C410C410C410B410B410C410CB6
:1044A000492C492C492C492C492C492C492C492C64
:1044B000492C494C494C494C494D494D496D496D30
:1044C000496D496D496D496D496D494D494D494D9C
:1044D000494D494D494D414D414D414D414D414D54
:1044E000414D414D416D416D416D416D416D416D9C
:1044F000416D416D416D416D416E416E416E416E48
:10450000416E496E496E496E416D416D418E418EDD
:10451000418E498E498E498E498E498E498E498EEB
:10452000498E518E518E518E51AE51AE51AE51AE1B
:1045300051AE51AE51AE51AE51AE51AE51AE51AE83
:1045400051AE51AE51AE51AE51AE51AE51AE51AF72
:1045500051AF51AF51AF51AF59CF59CF59CF59CFBB
:1045600059CF59CF59CF59CF38A638A638A638A633
:1045700040A640A6408640863886388640864086DB
:1045800040A640A640A640A640A640A640A640A6FB
:1045900040A740A740A740A7408740A740A740A703
:1045A00040A740A740A740A740884088408840884F
:1045B00040884088408840884088408840884088BB
:1045C00040884088408840884088408840A840A86B
:1045D00040A840A840A840A840A940A940A940A997
:1045E00040A940A940A940A940A940A940A940A983
:1045F00040A940A940A940A940A940A940A940A973
:1046000040A940A940A940A940A940A940A940C942
:1046100040CA40CA48CA48EA48EA48EA48EA48CA9A
:1046200048CA48CA48CA48CA48CA48CA48CA48CAFA
:1046300048EA48EA48EA48EA48EB48EB48EB48EBE6
:1046400048EB48EB48EB48EB40EB40EB40EB40EBF2
:10465000410B410B410B410B410B410B410B410BFA
:10466000410B410B412C412C410B410B410B410CA7
:10467000410C492C492C492C410C410C492C492C0A
:10468000492C492C492C492C494C494C494C514DF9
:10469000514D514D514D494D494D494D494D496D32
:1046A000496D496D496D496D516D496D496D496D52
:1046B000496D496D496D496D494D496D496D416D72
:1046C000416D416D416E416E416D416D416E416E76
:1046D000416E416E416E416E496E496E496E496E42
:1046E000496E498E498E498E418E418E418E498E4A
:1046F000498E49AE49AE49AE51CF51CF51CF51CF7E
:1047000051CF51CF51CF51CF51CF51CE59CF59CF9A
:1047100059CF59CF59CE59CE59CE59CE59CE59CE5F
:1047200059CE59CE59CE59CE59CE59CE59CF59CF4F
:1047300059CF59CF59CF59CF59CF59CF59CF59CF39
:1047400059CF59CF59CF59CF38A738A740A740A73D
:1047500040A740A740A740A740864086408640A784
:1047600040A740A740A740A740A740A740A740A711
:1047700040A740A740A740A740A740A740A740A701
:1047800040A740A740A840A840A840A840A840A8EB
:1047900040A840A840A840A840A840A840A840A8D9
:1047A00040A840A840A840A840A8408840A840A8E9
:1047B00040A840A840A840A840A940A940A940A9B5
:1047C00040A940A940A940A940C940C940C940C921
:1047D00040C940C940C940C940C940C940C940C991
:1047E00040C940C940C940C940A940A940A940A901
:1047F00040A940C948CA48CA48CA48CA48CA48CA5B
:1048000048CA48CA48CA48CA48CA48CA48CA48CA18
:1048100048CA48EA48EA48EA48EA48EA48EA48EA28
:1048200040EB40EB40EB40EB40EB40EB40EB40EB30
:1048300040EB40EB40EB40EB410B410B410B410B9C
:10484000410B410B410B410B410B410B490B490BF8
:10485000490C492C492C492C492C492C492C492CD0
:10486000492C492C494C494C514C514C514C514CC0
:10487000514D514D516D516D514D494D516D516DD0
:10488000516D516D516D496D516D516D516D496D48
:10489000496D496D496D498D496D496D496E496E46
:1048A000496E496E496E496E496E496E496E498E30
:1048B000498E498E498E498E498E498E498E498E40
:1048C000498E498E498E498E498E498E498E498E30
:1048D00049AE49AE51AE51AF51CF51CF59CF59CF5B
:1048E00059CF59CF59CF59CF59CF59CF59EF61EF40
:1048F00061EF620F620F620F61EF61EF61EF61EFD5
:10490000620F620F620F620F61EF61EF61EF61EFA3
:104910006A0F61EF61EF61EF61EF61EF61EF61EFEE
:1049200061EF61EF61EF61EF40A740A740A740A7AB
:1049300040A740A740A740A740A740A740A740A73F
:1049400040A740A740A740A740A740A740A740A72F
:1049500040A740A740A740A740A740A7408740875F
:104960004087408740A840A84088408840884088C9
:1049700040A840A84088408840A840A840A840A837
:1049800040A840A840A840A840A840A840A840A8E7
:1049900040A840A840A840A840A840A840A940A9D5
:1049A00040A940A940A940A940A940A940A940C99F
:1049B00040A940A940C940C940CA40CA40CA40CAEB
:1049C00040CA40EA40CA40CA40A940A940A940A9FB
:1049D00040A940A940A940A940A940A940AA40AA8D
:1049E00048AA48AA48AA48AA48CA40CA48CB48CABE
:1049F00040CB40CA40CB40CB40EB40EB40EB40EBE0
:104A000040EB40EB40EB40EB40EB40EB40EB40EB4E
:104A100040EB40EB40EB40EB40EB40EB390B410B04
:104A2000410B410B410B410B410B410B410B410B26
:104A3000410C492C492C492C494C494C494C494C76
:104A4000494C494C494C514C494C514C514C514D9D
:104A5000514D514D516D516D516D518D518D518D46
:104A6000518D518D518D518D518D518D518D518D56
:104A7000518D518D518E518E496D496D496E498EC2
:104A8000498E498E498E498E498E498E498E498E6E
:104A9000498E498E498E498E498E498E498E498E5E
:104AA000498E498E498E49AE498E498E498E498E2E
:104AB00049AE49AE51AF51AF51AF51AF51AF51AF08
:104AC00051AF51AF51AF51AF51AE59CE59CE59EF51
:104AD00061EF620F620F620F620F620F620F620F6F
:104AE000620F622F620F620F622F6A0F6A2F6A30A5
:104AF0006A306A306A306A306A306A306A306A30E6
:104B00006A306A306A306A3048A748A748A74887A1
:104B1000488748874887488748A748A748A748A79D
:104B200048A748A748A748A748A748A748A748A70D
:104B300048A748A748A748A740874087408740879D
:104B400040A740A7408740874087408740884088EB
:104B5000408840884088408840A840A840A840A895
:104B600040A840A840A840A840A940A940A940A901
:104B700040A940A940C940C940C940C940C940C92D
:104B800040C940C940A940A940A940A940AA40A99C
:104B900040AA40AA40AA40AA40CA40CA40CA40CA45
:104BA00040CA40CA40CA40CA40CA48CA48CA48CA9D
:104BB00040CA40CA40CA40CA40AA40AA40AA40CA05
:104BC00040CA40CA40CA40CA40CA40CA40CB40CA94
:104BD00040CB40CA40EB40EB40EB40EB40EB40EBBE
:104BE00040EB40EB40EB40EB40EB38EB38EB390B64
:104BF00038EB410B410B410B410C410B410C410B7C
:104C0000410C410B410C410B412C412C412C412CBE
:104C1000412C412C412C412C492C492C492C494CEC
:104C2000494C494C494D494C516D516C516C516D39
:104C3000516D516D516D516D516D516D516D516D84
:104C4000516D516D598D598D598D518E518E518E99
:104C5000518E518E518E518E498D498D498E498E7E
:104C6000498E498E498E498E498E498E498E498E8C
:104C7000498E498E498E498E49AE49AE49AE49AEFC
:104C800049AE49AE49AE49AE49AF49AF49AF49AF68
:104C900049AF49AF51AF51AF51AF51AF51AF51AF24
:104CA00051AF51AF51AF51CF51CF51CF51CF51CF64
:104CB00051CF51CF51CF51CF59CF59CF59CF59CFD4
:104CC00059CF59EF59CF59EF59EF59EF59EF59EFE4
:104CD00059EF59EF59EF59EF61EF620F61EF620F32
:104CE000620F62106A10621048A748A748A748A739
:104CF00048A748A748A748A748A748A748A748A73C
:104D000048A748A748A748A748A748A748A748A72B
:104D100048A748A748A748A748A748A748A748A71B
:104D200048A848A848A848A84088408840884088A3
:104D3000408840884088408840A840A840884088F3
:104D4000408840A840A840A8408840A940A940A960
:104D500040A940A940A940A948C940C940C940A9A3
:104D600040A940C940A940A940A940A940AA40A9DA
:104D700040AA40AA40AA40AA40AA40CA40AA40CAA3
:104D800040CA40CA40CA40CA40AA40CA40CA40CAF3
:104D900048CA48EA48EA48EA48EB40EB40EB40EBB7
:104DA00040EB40EB40EB40EB40CB40CB40CB40CB2B
:104DB00040CB40EB40EB40EB40EB40EB40EB40EBBB
:104DC00040EB40EB40EB38EB410B390B390B390B27
:104DD000410C410C410C410C410C412C410C412C2B
:104DE000412C412C412C412C412C412C412C412C5B
:104DF000412C412C412C412C412C412C412C414C2B
:104E0000494C494C494C494C496D516D516D516D5E
:104E1000516D516D518D518D518D518D518D518DE2
:104E2000598D598D598D598D598E598E598E518E56
:104E3000518E518E518E51AE518E518E518E49AE42
:104E400049AE498E498E49AE49AE49AE49AE49AEEA
:104E500049AE49AE49AE49AE49AE49AE49AE49AE9A
:104E600049AE49AE49AE49AF49AF51AF51AF51AF6D
:104E700051AF51AF51AF51AF51CF51CF51CF51D0B1
:104E800051D051D051D051CF51CF51CF51CF51CF1F
:104E900051CF51EF51EF51EF51EF51EF51EF59EF2A
:104EA00059EF59EF59EF59EF59EF51EF5A0F5A0F88
:104EB0005A105A105A105A10620F62106210621083
:104EC000621062106210621048A748A748A748A75E
:104ED00048A748A748A748A748A748A748A748A75A
:104EE00048A748A748A748A748A748A748A748A74A
:104EF00048A748A748A748A748A748A748A748A73A
:104F000048A848A848A848A8488848A84888488881
:104F1000488848A848A848A848A848A848A848A831
:104F200048A848A848A840A848884888488840A970
:104F300040A940A940A940A948A948C948C948C9A9
:104F400040A940A940A940A948A948A948A948A9F9
:104F500048A940C940C940C940A940A940AA40C980
:104F600040CA40C940CA40CA40A940A940AA40CA54
:104F700040CA40CA40CA40CA40EB40EB40EB40EB5D
:104F800040EB40EB40EB40EB40EB40EB40EB40EBC9
:104F900040EB40EB40EB40EB40EB40EB40EB40EBB9
:104FA00040EB40EB410C410C410C410C410C410CDD
:104FB000410C410C410C410C410C412C410C412C49
:104FC000412C412C412C412C412C412C412C412C79
:104FD000412C414D414D414D412C414C414C414CA6
:104FE000494D494D496D496D496D496D496D496D51
:104FF000496D498D518D518D518D518D518D518DF1
:10500000518E51AE51AE59AE598E598E598E598E20
:1050100059AE59AE59AE59AE51AE51AE51AE51AE78
:1050200051AE51AE51AE51AE49AE49AE49AE49AEA8
:1050300049AE49AE49AE49AF49AF49AF49CF49CF73
:1050400049AF49AF49CF49AF51CF51CF51CF51CFE0
:1050500051CF51CF51CF51CF51CF51CF51CF51CF50
:1050600051F051F051F051F051CF51CF51EF51EF7C
:1050700051EF51EF51EF51EF59F059F059F059F00C
:1050800059F05A105A105A105A105A105A105A10F1
:105090006210621062306210621062106210621060
:1050A0006A106A106A306A3050A750A750A750A7FC
:1050B00050A750A750A750A750A750A750A750A738
:1050C00050A750A750A750A750A750A750A750A728
:1050D00050A750A750A748A7488748A7488748A87F
:1050E00048A848A848A848A848A848A848A848A840
:1050F00048A848A848A848A848A848A848A848A830
:1051000048A848A848A848A848A948A948A948A91B
:1051100048A948A948A948A948A948C948A948C9C7
:1051200048A948A948A948A948A948C948A948C9B7
:1051300048A948C948C948C948CA48CA48CA40CA0B
:1051400040CA40CA40CA40CA40CA40CA40CA40CA0F
:1051500040CA40CA40CA40CA40CA40CA40CA40EADF
:1051600040EB40EB40EB410B410B490B410B410B3A
:10517000410B410B410B410B40EB410B410B410BF0
:10518000410C410C410C410C410C410C410C410CB7
:10519000412C412C412C412C412C412C412C412CA7
:1051A000412C412C492C492C492D492D492D494D43
:1051B000494D494D494D494D494D414D496D496D07
:1051C000496D496D496D496D416D416D496D496D3F
:1051D000496D496D498D498D498D498D518E518E4D
:1051E00051AE51AE51AE51AE598E598E598E598E27
:1051F00059AE59AE59AE59AE59AF59AF59AF51AE7C
:1052000051AF51AF51AF51AF51CF51CF51CF51CF1E
:1052100051CF51CF51CF51CF51CF49CF51CF49CF9E
:1052200051CF49CF51CF51CF51CF51CF51CF51CF86
:1052300051CF51CF51CF51CF51CF51CF51F051EF2D
:1052400051F051EF51F051EF51EF51EF51EF51EF5C
:1052500059EF59EF59EF59EF59F059F059F05A10E9
:105260005A105A105A105A105A105A1062106210DE
:1052700062306230623062306A306A306A306A307E
:105280006A306A306A306A3050A750A750A750A7DA
:1052900050A750A750A750A750A750A750A750A756
:1052A00050A750A750A750A750A750A750A750A746
:1052B00050A750A750A750A750A850A850A850A832
:1052C00050A850A850A850A850C950C950C950C99A
:1052D00050A950C950C950C950C950C950C950C926
:1052E00050A950C950A948A948A948A948A948A9FE
:1052F00048A948A948A948A948A948C948A948C9E6
:1053000048C948C948C948C948C948C948C948C915
:1053100048C948C948C948C948EA48EA48CA48EAA1
:1053200048EA48EA48EA48EA40EA40EA40EA40EA0D
:1053300040EA40EA40EA40EA40CA38EA40EA40EA45
:10534000410B410B410B410B410B410B410B410BFD
:10535000410B410B410B412C410C410C410C412CA8
:10536000410C410C410C412C410C412C412C412C55
:10537000412C412C412C412C492C492C492C492CA5
:10538000492C492C492C492C492D492D492D492D71
:10539000494D494D494D494D496D496D496D496DDD
:1053A000496D498D498D498D498D498D498D498E6C
:1053B000498E498E498E498E498E498E498E498E35
:1053C000518E51AE51AE51AE59AE59AE59AE59AEE5
:1053D00059AE59AE59AE59AE59AE59AE59AE59AE95
:1053E00059AF51AF59AF51AF51CF51CF51CF51CF2D
:1053F00051CF51CF51CF51CF51CF51CF51CF51CFAD
:1054000051CF51CF51CF51CF51CF51CF51CF51CF9C
:1054100051CF51CF51CF51CF51EF51EF51EF51EF0C
:1054200051EF51EF51F051EF59EF59EF59F059F059
:1054300059F059F059F059F059F059F059F059F024
:105440005A106210621062106210621062106210D4
:105450006230623062306A306A306A306A306A5074
:105460006A306A306A306A3050A750A750A750A7F8
:1054700050A750A750A750A748A748A748A748A794
:1054800048A748A748A750A750A750A750A750A77C
:1054900050A750A750A750A750A850A850A850A850
:1054A00050A850A850C850C850C950C950C950C978
:1054B00050C950C950C950C950C950C950C950C924
:1054C00050C950C950C950C950C950C950C950C914
:1054D00050C950C950C950C950CA50CA50CA50CA00
:1054E00050CA50CA50CA50EA50C950C950C950C9D0
:1054F00048E948E948EA48EA48EA48EA48EA48EA1E
:1055000048EA48EA48EA48EA40EA40EA40EA40EA2B
:1055100040EA410A490B410B410B410B410B410B46
:10552000410B410B410B40EA40EB410B410B410B5E
:10553000410B410B410B412C412C412C412C412C66
:10554000412C412C412C412C412C412C412C412CF3
:10555000492C492C492C492C494D494D494D494D1F
:10556000494D494D494D494D514D514D514D514D6B
:10557000514D494D516D496D496D496D496D496DAB
:10558000498D498D498D498D498E498E498E498E67
:10559000498D498D498D498D498E51AE51AE51AEDF
:1055A00051AE51AE51AE51AE59AE59AE59AE59AEE3
:1055B00059AE59CE59CE59CE59CE59CE59CE59CED3
:1055C00059CF59CF59CF59CF59CF59CF59CF59CF9B
:1055D00059CF59CF59CF59CF51CF59CF59CF59CF93
:1055E00059CF59CF59CF59EF51EF51EF51EF51EFFB
:1055F00051EF51EF51EF51EF59EF59EF59EF59EF8B
:1056000059F05A0F5A105A105A105A1059F05A108D
:105610005A105A10621062105A105A10621062101A
:10562000621062106210621062106230623062308A
:105630006A306A306A306A306A306A306A506A307A
:10564000725072507250725050A750A750A750A776
:1056500050A750A750A750A750A750A750A750A792
:1056600050A750A750A750A750A750A750A750A782
:1056700050A850A850A850A850A850A850A850A86A
:1056800050A850A850A850A850C950C950C950C9D6
:1056900050C950C950C950C950C950C950C950C942
:1056A00050C950C950C950C950C950C950C950C932
:1056B00050E950EA50EA50EA50EA50EA50EA50EA1B
:1056C00050EA50EA50EA50EA50EA50EA50EA50EA0A
:1056D00050EA50EA50EA50EA48EA48EA48EA48EA1A
:1056E00048EA48EA48EA48EA48EA490A40EA40EA19
:1056F00040EA410A490B490B490B490B410B410B4D
:10570000410A410A40EB40EB410B410B490B490B6D
:10571000410B410C410C410C412C412C412C412CA2
:10572000412C412C412C412C412C412C414C414CD1
:10573000494C494C494C494C494D494D494D494DBD
:10574000494D496D496D516D516D516D516D516DA1
:10575000516D516D516D516D516D516D516D518D39
:10576000518D518D518D518D518E51AE518E51AE05
:10577000518E518E518E518E51AE51AE59AE59AEA1
:1057800059AE59AE59AE59AE59CE59CE59CE59CE61
:1057900059CE59CE59CE59CE59CE59CE59CE59CFD0
:1057A00059CF61EF61EF61EF59CF59CF59CF59CF41
:1057B00059CF59CF59CF59CF61EF61EF61EF61EF09
:1057C00061F061F059F059F059EF5A0F5A105A0F21
:1057D0005A105A0F5A105A0F5A105A0F5A105A107C
:1057E0005A105A1062106210621062106210621039
:1057F0006230623062306230623062306210623138
:1058000062316231623162316A316A316A316A31E0
:105810006A316A516A516A506A50725072507250BD
:10582000725072507250727050A850A850A850A870
:1058300050A850A850A850A850A850A850A850A8A8
:1058400050A850A850A850A850A850C850A850C858
:1058500050A850C850A850C850A850C850A850C808
:1058600050C850C850C850C850C950C950A950C994
:1058700050A950C950C950C950C950C950C950C980
:1058800050C950E950E950E950C950C950C950C9F0
:1058900050E950E950EA50EA50EA50EA50EA50EA3A
:1058A00050EA50EA510A510A510A510A510A510A62
:1058B000510A510A510A510A510A510A510A510A10
:1058C000510B510B510B510B510B490B490B490A11
:1058D000490A490A490A490A490B490B490B490B2C
:1058E000490B492B492B492B492B492B492B492B38
:1058F000492B492C492C492C492C412C412C412C19
:10590000412C414C414C414C414C414C414C494D46
:10591000494D494D494D494D494D494D496D496D97
:10592000516D496D516D518D516D596D596D596D57
:10593000596D596D598D598D516D516D598D598DC7
:10594000598D598D598D598D59AD59AD59AE59ADA6
:1059500059AE59AE59AE59AE59AE59AE59AE59CEEF
:1059600061AE61AE61AE59CE59CE59ED59CE59EE08
:1059700059CE59CE59CE59CE59EE59EE61EE61EE5F
:1059800061EE61EE61EE61EF61EF61EF61EF61EF9A
:1059900061EF61EF61EF61EF61EF61EF61EF61EF87
:1059A0006210621062106210621062106210621067
:1059B0006210621062106210621062106210623037
:1059C0006230623062306230623062306231623046
:1059D0006A3162306A316A316A316A316A316A31F8
:1059E0006A316A316A316A316A316A316A316A51BF
:1059F0007251725172517251725172507250727072
:105A00007A707A717A717A7058C858C850C850C87C
:105A100050C850C850C850C850A850A850A850C826
:105A200050C850C850C850C850C850C850C850C8B6
:105A300050C850C850C850C850C850C850C850C8A6
:105A400050C850C850C950C950C950C950E950E950
:105A500050E950E950E950E950C950E950C950E9BE
:105A600050C950C950C950C950E950E950E950E9EE
:105A700050E950E950EA50EA50E950E950E948E964
:105A800048E948E950EA50EA50EA50EA50EA510A37
:105A900050EA510B510B510B512B512B512B512BC8
:105AA000512B512B512B512B512B512B512B512B16
:105AB000512B512B512B512B512B512B512B512B06
:105AC000512B512B512B512B492C492C492C494CF2
:105AD000494C492C492C492C492C494C494C494C9E
